{
  "address": "0xfeF0A90cEBE37839E122E6d5c8f9751A0a36d49c",
  "abi": [
    {
      "inputs": [
        {
          "internalType": "address",
          "name": "owner",
          "type": "address"
        }
      ],
      "stateMutability": "nonpayable",
      "type": "constructor"
    },
    {
      "anonymous": false,
      "inputs": [
        {
          "indexed": true,
          "internalType": "address",
          "name": "reward",
          "type": "address"
        },
        {
          "indexed": true,
          "internalType": "address",
          "name": "oldAdmin",
          "type": "address"
        },
        {
          "indexed": true,
          "internalType": "address",
          "name": "newAdmin",
          "type": "address"
        }
      ],
      "name": "EmissionAdminUpdated",
      "type": "event"
    },
    {
      "anonymous": false,
      "inputs": [
        {
          "indexed": true,
          "internalType": "address",
          "name": "previousOwner",
          "type": "address"
        },
        {
          "indexed": true,
          "internalType": "address",
          "name": "newOwner",
          "type": "address"
        }
      ],
      "name": "OwnershipTransferred",
      "type": "event"
    },
    {
      "inputs": [
        {
          "components": [
            {
              "internalType": "uint88",
              "name": "emissionPerSecond",
              "type": "uint88"
            },
            {
              "internalType": "uint256",
              "name": "totalSupply",
              "type": "uint256"
            },
            {
              "internalType": "uint32",
              "name": "distributionEnd",
              "type": "uint32"
            },
            {
              "internalType": "address",
              "name": "asset",
              "type": "address"
            },
            {
              "internalType": "address",
              "name": "reward",
              "type": "address"
            },
            {
              "internalType": "contract ITransferStrategyBase",
              "name": "transferStrategy",
              "type": "address"
            },
            {
              "internalType": "contract IEACAggregatorProxy",
              "name": "rewardOracle",
              "type": "address"
            }
          ],
          "internalType": "struct RewardsDataTypes.RewardsConfigInput[]",
          "name": "config",
          "type": "tuple[]"
        }
      ],
      "name": "configureAssets",
      "outputs": [],
      "stateMutability": "nonpayable",
      "type": "function"
    },
    {
      "inputs": [
        {
          "internalType": "address",
          "name": "reward",
          "type": "address"
        }
      ],
      "name": "getEmissionAdmin",
      "outputs": [
        {
          "internalType": "address",
          "name": "",
          "type": "address"
        }
      ],
      "stateMutability": "view",
      "type": "function"
    },
    {
      "inputs": [],
      "name": "getRewardsController",
      "outputs": [
        {
          "internalType": "contract IRewardsController",
          "name": "",
          "type": "address"
        }
      ],
      "stateMutability": "view",
      "type": "function"
    },
    {
      "inputs": [],
      "name": "owner",
      "outputs": [
        {
          "internalType": "address",
          "name": "",
          "type": "address"
        }
      ],
      "stateMutability": "view",
      "type": "function"
    },
    {
      "inputs": [],
      "name": "renounceOwnership",
      "outputs": [],
      "stateMutability": "nonpayable",
      "type": "function"
    },
    {
      "inputs": [
        {
          "internalType": "address",
          "name": "user",
          "type": "address"
        },
        {
          "internalType": "address",
          "name": "claimer",
          "type": "address"
        }
      ],
      "name": "setClaimer",
      "outputs": [],
      "stateMutability": "nonpayable",
      "type": "function"
    },
    {
      "inputs": [
        {
          "internalType": "address",
          "name": "asset",
          "type": "address"
        },
        {
          "internalType": "address",
          "name": "reward",
          "type": "address"
        },
        {
          "internalType": "uint32",
          "name": "newDistributionEnd",
          "type": "uint32"
        }
      ],
      "name": "setDistributionEnd",
      "outputs": [],
      "stateMutability": "nonpayable",
      "type": "function"
    },
    {
      "inputs": [
        {
          "internalType": "address",
          "name": "reward",
          "type": "address"
        },
        {
          "internalType": "address",
          "name": "admin",
          "type": "address"
        }
      ],
      "name": "setEmissionAdmin",
      "outputs": [],
      "stateMutability": "nonpayable",
      "type": "function"
    },
    {
      "inputs": [
        {
          "internalType": "address",
          "name": "asset",
          "type": "address"
        },
        {
          "internalType": "address[]",
          "name": "rewards",
          "type": "address[]"
        },
        {
          "internalType": "uint88[]",
          "name": "newEmissionsPerSecond",
          "type": "uint88[]"
        }
      ],
      "name": "setEmissionPerSecond",
      "outputs": [],
      "stateMutability": "nonpayable",
      "type": "function"
    },
    {
      "inputs": [
        {
          "internalType": "address",
          "name": "reward",
          "type": "address"
        },
        {
          "internalType": "contract IEACAggregatorProxy",
          "name": "rewardOracle",
          "type": "address"
        }
      ],
      "name": "setRewardOracle",
      "outputs": [],
      "stateMutability": "nonpayable",
      "type": "function"
    },
    {
      "inputs": [
        {
          "internalType": "address",
          "name": "controller",
          "type": "address"
        }
      ],
      "name": "setRewardsController",
      "outputs": [],
      "stateMutability": "nonpayable",
      "type": "function"
    },
    {
      "inputs": [
        {
          "internalType": "address",
          "name": "reward",
          "type": "address"
        },
        {
          "internalType": "contract ITransferStrategyBase",
          "name": "transferStrategy",
          "type": "address"
        }
      ],
      "name": "setTransferStrategy",
      "outputs": [],
      "stateMutability": "nonpayable",
      "type": "function"
    },
    {
      "inputs": [
        {
          "internalType": "address",
          "name": "newOwner",
          "type": "address"
        }
      ],
      "name": "transferOwnership",
      "outputs": [],
      "stateMutability": "nonpayable",
      "type": "function"
    }
  ],
  "transactionHash": "0x657e828bba2581728a86836ea3b3b1af42c0e2f2c5191b315822e33147262deb",
  "args": [
    "0x7aF08613Bd9E2111EbA13a2d5d08a9A0cF4d3307"
  ],
  "numDeployments": 1,
  "solcInputHash": "064a3948b0a7f15e784edb20aa805bc2",
  "bytecode": "0x60806040523480156200001157600080fd5b50604051620015ac380380620015ac833981016040819052620000349162000187565b600080546001600160a01b031916339081178255604051909182916000805160206200158c833981519152908290a3506200006f8162000076565b50620001b9565b6000546001600160a01b03163314620000d65760405162461bcd60e51b815260206004820181905260248201527f4f776e61626c653a2063616c6c6572206973206e6f7420746865206f776e657260448201526064015b60405180910390fd5b6001600160a01b0381166200013d5760405162461bcd60e51b815260206004820152602660248201527f4f776e61626c653a206e6577206f776e657220697320746865207a65726f206160448201526564647265737360d01b6064820152608401620000cd565b600080546040516001600160a01b03808516939216916000805160206200158c83398151915291a3600080546001600160a01b0319166001600160a01b0392909216919091179055565b6000602082840312156200019a57600080fd5b81516001600160a01b0381168114620001b257600080fd5b9392505050565b6113c380620001c96000396000f3fe608060405234801561001057600080fd5b50600436106100df5760003560e01c8063bee36bb31161008c578063e15ac62311610066578063e15ac623146101eb578063f2fde38b146101fe578063f5cf673b14610211578063f996868b1461022457600080fd5b8063bee36bb3146101a7578063c5a7b538146101ba578063de262738146101cd57600080fd5b80638da5cb5b116100bd5780638da5cb5b14610163578063955c2ad714610181578063a286c6b41461019457600080fd5b8063529b1e87146100e45780635453ba1014610146578063715018a61461015b575b600080fd5b61011d6100f2366004610e27565b73ffffffffffffffffffffffffffffffffffffffff9081166000908152600160205260409020541690565b60405173ffffffffffffffffffffffffffffffffffffffff909116815260200160405180910390f35b610159610154366004610e4b565b610237565b005b610159610361565b60005473ffffffffffffffffffffffffffffffffffffffff1661011d565b61015961018f366004610f5a565b610451565b6101596101a2366004610e4b565b6105c8565b6101596101b5366004610e27565b6106d2565b6101596101c8366004611082565b61079a565b60025473ffffffffffffffffffffffffffffffffffffffff1661011d565b6101596101f9366004610e4b565b6108cb565b61015961020c366004610e27565b6109bd565b61015961021f366004610e4b565b610b6e565b610159610232366004611115565b610c80565b73ffffffffffffffffffffffffffffffffffffffff82811660009081526001602052604090205483911633146102ce576040517f08c379a000000000000000000000000000000000000000000000000000000000815260206004820152601360248201527f4f4e4c595f454d495353494f4e5f41444d494e0000000000000000000000000060448201526064015b60405180910390fd5b6002546040517f5453ba1000000000000000000000000000000000000000000000000000000000815273ffffffffffffffffffffffffffffffffffffffff8581166004830152848116602483015290911690635453ba10906044015b600060405180830381600087803b15801561034457600080fd5b505af1158015610358573d6000803e3d6000fd5b50505050505050565b60005473ffffffffffffffffffffffffffffffffffffffff1633146103e2576040517f08c379a000000000000000000000000000000000000000000000000000000000815260206004820181905260248201527f4f776e61626c653a2063616c6c6572206973206e6f7420746865206f776e657260448201526064016102c5565b6000805460405173ffffffffffffffffffffffffffffffffffffffff909116907f8be0079c531659141344cd1fd0a4f28419497f9722a3daafe3b4186f6b6457e0908390a3600080547fffffffffffffffffffffffff0000000000000000000000000000000000000000169055565b60005b815181101561053c573373ffffffffffffffffffffffffffffffffffffffff166001600084848151811061048a5761048a611198565b6020908102919091018101516080015173ffffffffffffffffffffffffffffffffffffffff90811683529082019290925260400160002054161461052a576040517f08c379a000000000000000000000000000000000000000000000000000000000815260206004820152601360248201527f4f4e4c595f454d495353494f4e5f41444d494e0000000000000000000000000060448201526064016102c5565b80610534816111c7565b915050610454565b506002546040517f955c2ad700000000000000000000000000000000000000000000000000000000815273ffffffffffffffffffffffffffffffffffffffff9091169063955c2ad790610593908490600401611227565b600060405180830381600087803b1580156105ad57600080fd5b505af11580156105c1573d6000803e3d6000fd5b5050505050565b60005473ffffffffffffffffffffffffffffffffffffffff163314610649576040517f08c379a000000000000000000000000000000000000000000000000000000000815260206004820181905260248201527f4f776e61626c653a2063616c6c6572206973206e6f7420746865206f776e657260448201526064016102c5565b73ffffffffffffffffffffffffffffffffffffffff80831660008181526001602052604080822080548686167fffffffffffffffffffffffff0000000000000000000000000000000000000000821681179092559151919094169392849290917fda40ea421dd7e42cf8be71255facac4fdc12a3f70f4d5fd373cb16cec4cb53849190a4505050565b60005473ffffffffffffffffffffffffffffffffffffffff163314610753576040517f08c379a000000000000000000000000000000000000000000000000000000000815260206004820181905260248201527f4f776e61626c653a2063616c6c6572206973206e6f7420746865206f776e657260448201526064016102c5565b600280547fffffffffffffffffffffffff00000000000000000000000000000000000000001673ffffffffffffffffffffffffffffffffffffffff92909216919091179055565b73ffffffffffffffffffffffffffffffffffffffff828116600090815260016020526040902054839116331461082c576040517f08c379a000000000000000000000000000000000000000000000000000000000815260206004820152601360248201527f4f4e4c595f454d495353494f4e5f41444d494e0000000000000000000000000060448201526064016102c5565b6002546040517fc5a7b53800000000000000000000000000000000000000000000000000000000815273ffffffffffffffffffffffffffffffffffffffff8681166004830152858116602483015263ffffffff851660448301529091169063c5a7b53890606401600060405180830381600087803b1580156108ad57600080fd5b505af11580156108c1573d6000803e3d6000fd5b5050505050505050565b73ffffffffffffffffffffffffffffffffffffffff828116600090815260016020526040902054839116331461095d576040517f08c379a000000000000000000000000000000000000000000000000000000000815260206004820152601360248201527f4f4e4c595f454d495353494f4e5f41444d494e0000000000000000000000000060448201526064016102c5565b6002546040517fe15ac62300000000000000000000000000000000000000000000000000000000815273ffffffffffffffffffffffffffffffffffffffff858116600483015284811660248301529091169063e15ac6239060440161032a565b60005473ffffffffffffffffffffffffffffffffffffffff163314610a3e576040517f08c379a000000000000000000000000000000000000000000000000000000000815260206004820181905260248201527f4f776e61626c653a2063616c6c6572206973206e6f7420746865206f776e657260448201526064016102c5565b73ffffffffffffffffffffffffffffffffffffffff8116610ae1576040517f08c379a000000000000000000000000000000000000000000000000000000000815260206004820152602660248201527f4f776e61626c653a206e6577206f776e657220697320746865207a65726f206160448201527f646472657373000000000000000000000000000000000000000000000000000060648201526084016102c5565b6000805460405173ffffffffffffffffffffffffffffffffffffffff808516939216917f8be0079c531659141344cd1fd0a4f28419497f9722a3daafe3b4186f6b6457e091a3600080547fffffffffffffffffffffffff00000000000000000000000000000000000000001673ffffffffffffffffffffffffffffffffffffffff92909216919091179055565b60005473ffffffffffffffffffffffffffffffffffffffff163314610bef576040517f08c379a000000000000000000000000000000000000000000000000000000000815260206004820181905260248201527f4f776e61626c653a2063616c6c6572206973206e6f7420746865206f776e657260448201526064016102c5565b6002546040517ff5cf673b00000000000000000000000000000000000000000000000000000000815273ffffffffffffffffffffffffffffffffffffffff848116600483015283811660248301529091169063f5cf673b90604401600060405180830381600087803b158015610c6457600080fd5b505af1158015610c78573d6000803e3d6000fd5b505050505050565b60005b83811015610d5a573360016000878785818110610ca257610ca2611198565b9050602002016020810190610cb79190610e27565b73ffffffffffffffffffffffffffffffffffffffff90811682526020820192909252604001600020541614610d48576040517f08c379a000000000000000000000000000000000000000000000000000000000815260206004820152601360248201527f4f4e4c595f454d495353494f4e5f41444d494e0000000000000000000000000060448201526064016102c5565b80610d52816111c7565b915050610c83565b506002546040517ff996868b00000000000000000000000000000000000000000000000000000000815273ffffffffffffffffffffffffffffffffffffffff9091169063f996868b90610db990889088908890889088906004016112dc565b600060405180830381600087803b158015610dd357600080fd5b505af1158015610de7573d6000803e3d6000fd5b505050505050505050565b73ffffffffffffffffffffffffffffffffffffffff81168114610e1457600080fd5b50565b8035610e2281610df2565b919050565b600060208284031215610e3957600080fd5b8135610e4481610df2565b9392505050565b60008060408385031215610e5e57600080fd5b8235610e6981610df2565b91506020830135610e7981610df2565b809150509250929050565b7f4e487b7100000000000000000000000000000000000000000000000000000000600052604160045260246000fd5b60405160e0810167ffffffffffffffff81118282101715610ed657610ed6610e84565b60405290565b604051601f82017fffffffffffffffffffffffffffffffffffffffffffffffffffffffffffffffe016810167ffffffffffffffff81118282101715610f2357610f23610e84565b604052919050565b80356affffffffffffffffffffff81168114610e2257600080fd5b803563ffffffff81168114610e2257600080fd5b60006020808385031215610f6d57600080fd5b823567ffffffffffffffff80821115610f8557600080fd5b818501915085601f830112610f9957600080fd5b813581811115610fab57610fab610e84565b610fb9848260051b01610edc565b818152848101925060e0918202840185019188831115610fd857600080fd5b938501935b828510156110765780858a031215610ff55760008081fd5b610ffd610eb3565b61100686610f2b565b81528686013587820152604061101d818801610f46565b9082015260608681013561103081610df2565b908201526080611041878201610e17565b9082015260a0611052878201610e17565b9082015260c0611063878201610e17565b9082015284529384019392850192610fdd565b50979650505050505050565b60008060006060848603121561109757600080fd5b83356110a281610df2565b925060208401356110b281610df2565b91506110c060408501610f46565b90509250925092565b60008083601f8401126110db57600080fd5b50813567ffffffffffffffff8111156110f357600080fd5b6020830191508360208260051b850101111561110e57600080fd5b9250929050565b60008060008060006060868803121561112d57600080fd5b853561113881610df2565b9450602086013567ffffffffffffffff8082111561115557600080fd5b61116189838a016110c9565b9096509450604088013591508082111561117a57600080fd5b50611187888289016110c9565b969995985093965092949392505050565b7f4e487b7100000000000000000000000000000000000000000000000000000000600052603260045260246000fd5b60007fffffffffffffffffffffffffffffffffffffffffffffffffffffffffffffffff821415611220577f4e487b7100000000000000000000000000000000000000000000000000000000600052601160045260246000fd5b5060010190565b602080825282518282018190526000919060409081850190868401855b828110156112cf57815180516affffffffffffffffffffff16855286810151878601528581015163ffffffff168686015260608082015173ffffffffffffffffffffffffffffffffffffffff9081169187019190915260808083015182169087015260a08083015182169087015260c091820151169085015260e09093019290850190600101611244565b5091979650505050505050565b73ffffffffffffffffffffffffffffffffffffffff868116825260606020808401829052908301869052600091879160808501845b8981101561133857843561132481610df2565b841682529382019390820190600101611311565b5085810360408701528681528101925086915060005b8681101561137e576affffffffffffffffffffff61136b84610f2b565b168452928101929181019160010161134e565b5091999850505050505050505056fea2646970667358221220aa8af0d72523e280edde61c88208df0a0b42aee6595e2a1e7ae68318ea96f68d64736f6c634300080a00338be0079c531659141344cd1fd0a4f28419497f9722a3daafe3b4186f6b6457e0",
  "devdoc": {
    "author": "Aave",
    "kind": "dev",
    "methods": {
      "configureAssets((uint88,uint256,uint32,address,address,address,address)[])": {
        "details": "Configure assets to incentivize with an emission of rewards per second until the end of distribution.Only callable by the emission admin of the given rewards",
        "params": {
          "config": "The assets configuration input, the list of structs contains the following fields:   uint104 emissionPerSecond: The emission per second following rewards unit decimals.   uint256 totalSupply: The total supply of the asset to incentivize   uint40 distributionEnd: The end of the distribution of the incentives for an asset   address asset: The asset address to incentivize   address reward: The reward token address   ITransferStrategy transferStrategy: The TransferStrategy address with the install hook and claim logic.   IEACAggregatorProxy rewardOracle: The Price Oracle of a reward to visualize the incentives at the UI Frontend.                                     Must follow Chainlink Aggregator IEACAggregatorProxy interface to be compatible."
        }
      },
      "constructor": {
        "params": {
          "owner": "The address of the owner"
        }
      },
      "getEmissionAdmin(address)": {
        "details": "Returns the admin of the given reward emission",
        "params": {
          "reward": "The address of the reward token"
        },
        "returns": {
          "_0": "The address of the emission admin"
        }
      },
      "getRewardsController()": {
        "details": "Returns the rewards controller address",
        "returns": {
          "_0": "The address of the RewardsController contract"
        }
      },
      "owner()": {
        "details": "Returns the address of the current owner."
      },
      "renounceOwnership()": {
        "details": "Leaves the contract without owner. It will not be possible to call `onlyOwner` functions anymore. Can only be called by the current owner. NOTE: Renouncing ownership will leave the contract without an owner, thereby removing any functionality that is only available to the owner."
      },
      "setClaimer(address,address)": {
        "details": "Whitelists an address to claim the rewards on behalf of another addressOnly callable by the owner of the EmissionManager",
        "params": {
          "claimer": "The address of the claimer",
          "user": "The address of the user"
        }
      },
      "setDistributionEnd(address,address,uint32)": {
        "details": "Sets the end date for the distributionOnly callable by the emission admin of the given reward",
        "params": {
          "asset": "The asset to incentivize",
          "newDistributionEnd": "The end date of the incentivization, in unix time format*",
          "reward": "The reward token that incentives the asset"
        }
      },
      "setEmissionAdmin(address,address)": {
        "details": "Updates the admin of the reward emissionOnly callable by the owner of the EmissionManager",
        "params": {
          "admin": "The address of the new admin of the emission",
          "reward": "The address of the reward token"
        }
      },
      "setEmissionPerSecond(address,address[],uint88[])": {
        "details": "Sets the emission per second of a set of reward distributions",
        "params": {
          "asset": "The asset is being incentivized",
          "newEmissionsPerSecond": "List of new reward emissions per second",
          "rewards": "List of reward addresses are being distributed"
        }
      },
      "setRewardOracle(address,address)": {
        "details": "Sets an Aave Oracle contract to enforce rewards with a source of value.Only callable by the emission admin of the given reward",
        "params": {
          "reward": "The address of the reward to set the price aggregator",
          "rewardOracle": "The address of price aggregator that follows IEACAggregatorProxy interface"
        }
      },
      "setRewardsController(address)": {
        "details": "Updates the address of the rewards controllerOnly callable by the owner of the EmissionManager",
        "params": {
          "controller": "the address of the RewardsController contract"
        }
      },
      "setTransferStrategy(address,address)": {
        "details": "Sets a TransferStrategy logic contract that determines the logic of the rewards transferOnly callable by the emission admin of the given reward",
        "params": {
          "reward": "The address of the reward token",
          "transferStrategy": "The address of the TransferStrategy logic contract"
        }
      },
      "transferOwnership(address)": {
        "details": "Transfers ownership of the contract to a new account (`newOwner`). Can only be called by the current owner."
      }
    },
    "title": "EmissionManager",
    "version": 1
  },
  "userdoc": {
    "kind": "user",
    "methods": {
      "constructor": {
        "notice": "Constructor."
      },
      "setRewardOracle(address,address)": {
        "notice": "At the moment of reward configuration, the Incentives Controller performs a check to see if the reward asset oracle is compatible with IEACAggregator proxy. This check is enforced for integrators to be able to show incentives at the current Aave UI without the need to setup an external price registry"
      }
    },
    "notice": "It manages the list of admins of reward emissions and provides functions to control reward emissions.",
    "version": 1
  },
  "storageLayout": {
    "storage": [
      {
        "astId": 1472,
        "contract": "@aave/periphery-v3/contracts/rewards/EmissionManager.sol:EmissionManager",
        "label": "_owner",
        "offset": 0,
        "slot": "0",
        "type": "t_address"
      },
      {
        "astId": 37015,
        "contract": "@aave/periphery-v3/contracts/rewards/EmissionManager.sol:EmissionManager",
        "label": "_emissionAdmins",
        "offset": 0,
        "slot": "1",
        "type": "t_mapping(t_address,t_address)"
      },
      {
        "astId": 37018,
        "contract": "@aave/periphery-v3/contracts/rewards/EmissionManager.sol:EmissionManager",
        "label": "_rewardsController",
        "offset": 0,
        "slot": "2",
        "type": "t_contract(IRewardsController)40094"
      }
    ],
    "types": {
      "t_address": {
        "encoding": "inplace",
        "label": "address",
        "numberOfBytes": "20"
      },
      "t_contract(IRewardsController)40094": {
        "encoding": "inplace",
        "label": "contract IRewardsController",
        "numberOfBytes": "20"
      },
      "t_mapping(t_address,t_address)": {
        "encoding": "mapping",
        "key": "t_address",
        "label": "mapping(address => address)",
        "numberOfBytes": "32",
        "value": "t_address"
      }
    }
  }
}