{
  "address": "0x28ae52Ac8C8aF094e35e6c808807a01f3ECFc6B5",
  "abi": [
    {
      "inputs": [],
      "stateMutability": "nonpayable",
      "type": "constructor"
    },
    {
      "anonymous": false,
      "inputs": [
        {
          "indexed": true,
          "internalType": "address",
          "name": "asset",
          "type": "address"
        },
        {
          "indexed": false,
          "internalType": "uint256",
          "name": "price",
          "type": "uint256"
        },
        {
          "indexed": false,
          "internalType": "uint256",
          "name": "timestamp",
          "type": "uint256"
        }
      ],
      "name": "AssetPriceUpdated",
      "type": "event"
    },
    {
      "anonymous": false,
      "inputs": [
        {
          "indexed": false,
          "internalType": "uint256",
          "name": "price",
          "type": "uint256"
        },
        {
          "indexed": false,
          "internalType": "uint256",
          "name": "timestamp",
          "type": "uint256"
        }
      ],
      "name": "EthPriceUpdated",
      "type": "event"
    },
    {
      "anonymous": false,
      "inputs": [
        {
          "indexed": true,
          "internalType": "bytes32",
          "name": "role",
          "type": "bytes32"
        },
        {
          "indexed": true,
          "internalType": "bytes32",
          "name": "previousAdminRole",
          "type": "bytes32"
        },
        {
          "indexed": true,
          "internalType": "bytes32",
          "name": "newAdminRole",
          "type": "bytes32"
        }
      ],
      "name": "RoleAdminChanged",
      "type": "event"
    },
    {
      "anonymous": false,
      "inputs": [
        {
          "indexed": true,
          "internalType": "bytes32",
          "name": "role",
          "type": "bytes32"
        },
        {
          "indexed": true,
          "internalType": "address",
          "name": "account",
          "type": "address"
        },
        {
          "indexed": true,
          "internalType": "address",
          "name": "sender",
          "type": "address"
        }
      ],
      "name": "RoleGranted",
      "type": "event"
    },
    {
      "anonymous": false,
      "inputs": [
        {
          "indexed": true,
          "internalType": "bytes32",
          "name": "role",
          "type": "bytes32"
        },
        {
          "indexed": true,
          "internalType": "address",
          "name": "account",
          "type": "address"
        },
        {
          "indexed": true,
          "internalType": "address",
          "name": "sender",
          "type": "address"
        }
      ],
      "name": "RoleRevoked",
      "type": "event"
    },
    {
      "inputs": [],
      "name": "DEFAULT_ADMIN_ROLE",
      "outputs": [
        {
          "internalType": "bytes32",
          "name": "",
          "type": "bytes32"
        }
      ],
      "stateMutability": "view",
      "type": "function"
    },
    {
      "inputs": [],
      "name": "OWNER_ADMIN",
      "outputs": [
        {
          "internalType": "bytes32",
          "name": "",
          "type": "bytes32"
        }
      ],
      "stateMutability": "view",
      "type": "function"
    },
    {
      "inputs": [
        {
          "internalType": "address",
          "name": "asset",
          "type": "address"
        }
      ],
      "name": "getAssetPrice",
      "outputs": [
        {
          "internalType": "uint256",
          "name": "",
          "type": "uint256"
        }
      ],
      "stateMutability": "view",
      "type": "function"
    },
    {
      "inputs": [],
      "name": "getEthUsdPrice",
      "outputs": [
        {
          "internalType": "uint256",
          "name": "",
          "type": "uint256"
        }
      ],
      "stateMutability": "view",
      "type": "function"
    },
    {
      "inputs": [
        {
          "internalType": "bytes32",
          "name": "role",
          "type": "bytes32"
        }
      ],
      "name": "getRoleAdmin",
      "outputs": [
        {
          "internalType": "bytes32",
          "name": "",
          "type": "bytes32"
        }
      ],
      "stateMutability": "view",
      "type": "function"
    },
    {
      "inputs": [
        {
          "internalType": "bytes32",
          "name": "role",
          "type": "bytes32"
        },
        {
          "internalType": "address",
          "name": "account",
          "type": "address"
        }
      ],
      "name": "grantRole",
      "outputs": [],
      "stateMutability": "nonpayable",
      "type": "function"
    },
    {
      "inputs": [
        {
          "internalType": "bytes32",
          "name": "role",
          "type": "bytes32"
        },
        {
          "internalType": "address",
          "name": "account",
          "type": "address"
        }
      ],
      "name": "hasRole",
      "outputs": [
        {
          "internalType": "bool",
          "name": "",
          "type": "bool"
        }
      ],
      "stateMutability": "view",
      "type": "function"
    },
    {
      "inputs": [
        {
          "internalType": "bytes32",
          "name": "role",
          "type": "bytes32"
        },
        {
          "internalType": "address",
          "name": "account",
          "type": "address"
        }
      ],
      "name": "renounceRole",
      "outputs": [],
      "stateMutability": "nonpayable",
      "type": "function"
    },
    {
      "inputs": [
        {
          "internalType": "bytes32",
          "name": "role",
          "type": "bytes32"
        },
        {
          "internalType": "address",
          "name": "account",
          "type": "address"
        }
      ],
      "name": "revokeRole",
      "outputs": [],
      "stateMutability": "nonpayable",
      "type": "function"
    },
    {
      "inputs": [
        {
          "internalType": "address",
          "name": "asset",
          "type": "address"
        },
        {
          "internalType": "uint256",
          "name": "price",
          "type": "uint256"
        }
      ],
      "name": "setAssetPrice",
      "outputs": [],
      "stateMutability": "nonpayable",
      "type": "function"
    },
    {
      "inputs": [
        {
          "internalType": "uint256",
          "name": "price",
          "type": "uint256"
        }
      ],
      "name": "setEthUsdPrice",
      "outputs": [],
      "stateMutability": "nonpayable",
      "type": "function"
    },
    {
      "inputs": [
        {
          "internalType": "bytes4",
          "name": "interfaceId",
          "type": "bytes4"
        }
      ],
      "name": "supportsInterface",
      "outputs": [
        {
          "internalType": "bool",
          "name": "",
          "type": "bool"
        }
      ],
      "stateMutability": "view",
      "type": "function"
    }
  ],
  "transactionHash": "0xdfddcad2b8a133d844251b377fb86c6b72a5dd430784218c99a08bd8fb57d451",
  "args": [],
  "numDeployments": 1,
  "solcInputHash": "064a3948b0a7f15e784edb20aa805bc2",
  "bytecode": "0x608060405234801561001057600080fd5b5061003b7fa1059a3fb6424285291c02375f93208368552007f88e4fac6f415eeba3a6abb33361004b565b61004660003361004b565b6100ea565b6000828152602081815260408083206001600160a01b038516845290915290205460ff166100e6576000828152602081815260408083206001600160a01b03851684529091529020805460ff191660011790556100a53390565b6001600160a01b0316816001600160a01b0316837f2f8788117e7eff1d82e926ec794901d17c78024a50270940304540a733656f0d60405160405180910390a45b5050565b610d02806100f96000396000f3fe608060405234801561001057600080fd5b50600436106100d45760003560e01c806391d1485411610081578063b3596f071161005b578063b3596f07146101e8578063b951883a1461021e578063d547741f1461023157600080fd5b806391d1485414610194578063a0a8045e146101d8578063a217fddf146101e057600080fd5b80632f2ff15d116100b25780632f2ff15d1461015957806336568abe1461016e57806351323f721461018157600080fd5b806301ffc9a7146100d9578063248a9ca3146101015780632e92a7c114610132575b600080fd5b6100ec6100e73660046109be565b610244565b60405190151581526020015b60405180910390f35b61012461010f366004610a00565b60009081526020819052604090206001015490565b6040519081526020016100f8565b6101247fa1059a3fb6424285291c02375f93208368552007f88e4fac6f415eeba3a6abb381565b61016c610167366004610a42565b6102dd565b005b61016c61017c366004610a42565b610307565b61016c61018f366004610a6e565b6103bf565b6100ec6101a2366004610a42565b60009182526020828152604080842073ffffffffffffffffffffffffffffffffffffffff93909316845291905290205460ff1690565b600254610124565b610124600081565b6101246101f6366004610a98565b73ffffffffffffffffffffffffffffffffffffffff1660009081526001602052604090205490565b61016c61022c366004610a00565b610459565b61016c61023f366004610a42565b6104c4565b60007fffffffff0000000000000000000000000000000000000000000000000000000082167f7965db0b0000000000000000000000000000000000000000000000000000000014806102d757507f01ffc9a7000000000000000000000000000000000000000000000000000000007fffffffff000000000000000000000000000000000000000000000000000000008316145b92915050565b6000828152602081905260409020600101546102f8816104e9565b61030283836104f6565b505050565b73ffffffffffffffffffffffffffffffffffffffff811633146103b1576040517f08c379a000000000000000000000000000000000000000000000000000000000815260206004820152602f60248201527f416363657373436f6e74726f6c3a2063616e206f6e6c792072656e6f756e636560448201527f20726f6c657320666f722073656c66000000000000000000000000000000000060648201526084015b60405180910390fd5b6103bb82826105e6565b5050565b7fa1059a3fb6424285291c02375f93208368552007f88e4fac6f415eeba3a6abb36103e9816104e9565b73ffffffffffffffffffffffffffffffffffffffff831660008181526001602052604090819020849055517fce6e0b57367bae95ca7198e1172f653ea64a645c16ab586b4cefa9237bfc2d929061044c9085904290918252602082015260400190565b60405180910390a2505050565b7fa1059a3fb6424285291c02375f93208368552007f88e4fac6f415eeba3a6abb3610483816104e9565b6002829055604080518381524260208201527fb4f35977939fa8b5ffe552d517a8ff5223046b1fdd3ee0068ae38d1e2b8d0016910160405180910390a15050565b6000828152602081905260409020600101546104df816104e9565b61030283836105e6565b6104f3813361069d565b50565b60008281526020818152604080832073ffffffffffffffffffffffffffffffffffffffff8516845290915290205460ff166103bb5760008281526020818152604080832073ffffffffffffffffffffffffffffffffffffffff85168452909152902080547fffffffffffffffffffffffffffffffffffffffffffffffffffffffffffffff001660011790556105883390565b73ffffffffffffffffffffffffffffffffffffffff168173ffffffffffffffffffffffffffffffffffffffff16837f2f8788117e7eff1d82e926ec794901d17c78024a50270940304540a733656f0d60405160405180910390a45050565b60008281526020818152604080832073ffffffffffffffffffffffffffffffffffffffff8516845290915290205460ff16156103bb5760008281526020818152604080832073ffffffffffffffffffffffffffffffffffffffff8516808552925280832080547fffffffffffffffffffffffffffffffffffffffffffffffffffffffffffffff0016905551339285917ff6391f5c32d9c69d2a47ea670b442974b53935d1edc7fd64eb21e047a839171b9190a45050565b60008281526020818152604080832073ffffffffffffffffffffffffffffffffffffffff8516845290915290205460ff166103bb576106db81610755565b6106e6836020610774565b6040516020016106f7929190610ae3565b604080517fffffffffffffffffffffffffffffffffffffffffffffffffffffffffffffffe0818403018152908290527f08c379a00000000000000000000000000000000000000000000000000000000082526103a891600401610b64565b60606102d773ffffffffffffffffffffffffffffffffffffffff831660145b60606000610783836002610be4565b61078e906002610c21565b67ffffffffffffffff8111156107a6576107a6610c39565b6040519080825280601f01601f1916602001820160405280156107d0576020820181803683370190505b5090507f30000000000000000000000000000000000000000000000000000000000000008160008151811061080757610807610c68565b60200101907effffffffffffffffffffffffffffffffffffffffffffffffffffffffffffff1916908160001a9053507f78000000000000000000000000000000000000000000000000000000000000008160018151811061086a5761086a610c68565b60200101907effffffffffffffffffffffffffffffffffffffffffffffffffffffffffffff1916908160001a90535060006108a6846002610be4565b6108b1906001610c21565b90505b600181111561094e577f303132333435363738396162636465660000000000000000000000000000000085600f16601081106108f2576108f2610c68565b1a60f81b82828151811061090857610908610c68565b60200101907effffffffffffffffffffffffffffffffffffffffffffffffffffffffffffff1916908160001a90535060049490941c9361094781610c97565b90506108b4565b5083156109b7576040517f08c379a000000000000000000000000000000000000000000000000000000000815260206004820181905260248201527f537472696e67733a20686578206c656e67746820696e73756666696369656e7460448201526064016103a8565b9392505050565b6000602082840312156109d057600080fd5b81357fffffffff00000000000000000000000000000000000000000000000000000000811681146109b757600080fd5b600060208284031215610a1257600080fd5b5035919050565b803573ffffffffffffffffffffffffffffffffffffffff81168114610a3d57600080fd5b919050565b60008060408385031215610a5557600080fd5b82359150610a6560208401610a19565b90509250929050565b60008060408385031215610a8157600080fd5b610a8a83610a19565b946020939093013593505050565b600060208284031215610aaa57600080fd5b6109b782610a19565b60005b83811015610ace578181015183820152602001610ab6565b83811115610add576000848401525b50505050565b7f416363657373436f6e74726f6c3a206163636f756e7420000000000000000000815260008351610b1b816017850160208801610ab3565b7f206973206d697373696e6720726f6c65200000000000000000000000000000006017918401918201528351610b58816028840160208801610ab3565b01602801949350505050565b6020815260008251806020840152610b83816040850160208701610ab3565b601f017fffffffffffffffffffffffffffffffffffffffffffffffffffffffffffffffe0169190910160400192915050565b7f4e487b7100000000000000000000000000000000000000000000000000000000600052601160045260246000fd5b6000817fffffffffffffffffffffffffffffffffffffffffffffffffffffffffffffffff0483118215151615610c1c57610c1c610bb5565b500290565b60008219821115610c3457610c34610bb5565b500190565b7f4e487b7100000000000000000000000000000000000000000000000000000000600052604160045260246000fd5b7f4e487b7100000000000000000000000000000000000000000000000000000000600052603260045260246000fd5b600081610ca657610ca6610bb5565b507fffffffffffffffffffffffffffffffffffffffffffffffffffffffffffffffff019056fea2646970667358221220037e16658d0bfabf78cc483304e03a4aa1f2ed4946782a6bd95235ecb280b35364736f6c634300080a0033",
  "devdoc": {
    "details": "Implements IFallbackPriceOracle and uses OpenZeppelin's AccessControl for role management.",
    "kind": "dev",
    "methods": {
      "getAssetPrice(address)": {
        "params": {
          "asset": "The address of the asset"
        },
        "returns": {
          "_0": "The price of the asset*"
        }
      },
      "getEthUsdPrice()": {
        "returns": {
          "_0": "The price of ETH in USD"
        }
      },
      "getRoleAdmin(bytes32)": {
        "details": "Returns the admin role that controls `role`. See {grantRole} and {revokeRole}. To change a role's admin, use {_setRoleAdmin}."
      },
      "grantRole(bytes32,address)": {
        "details": "Grants `role` to `account`. If `account` had not been already granted `role`, emits a {RoleGranted} event. Requirements: - the caller must have ``role``'s admin role. May emit a {RoleGranted} event."
      },
      "hasRole(bytes32,address)": {
        "details": "Returns `true` if `account` has been granted `role`."
      },
      "renounceRole(bytes32,address)": {
        "details": "Revokes `role` from the calling account. Roles are often managed via {grantRole} and {revokeRole}: this function's purpose is to provide a mechanism for accounts to lose their privileges if they are compromised (such as when a trusted device is misplaced). If the calling account had been revoked `role`, emits a {RoleRevoked} event. Requirements: - the caller must be `account`. May emit a {RoleRevoked} event."
      },
      "revokeRole(bytes32,address)": {
        "details": "Revokes `role` from `account`. If `account` had been granted `role`, emits a {RoleRevoked} event. Requirements: - the caller must have ``role``'s admin role. May emit a {RoleRevoked} event."
      },
      "setAssetPrice(address,uint256)": {
        "params": {
          "asset": "The address of the asset",
          "price": "The price of the asset*"
        }
      },
      "setEthUsdPrice(uint256)": {
        "details": "Can only be called by an account with the OWNER_ADMIN role",
        "params": {
          "price": "The new ETH to USD price"
        }
      },
      "supportsInterface(bytes4)": {
        "details": "See {IERC165-supportsInterface}."
      }
    },
    "stateVariables": {
      "ethPriceUsd": {
        "details": "Stores the price of ETH in USD"
      },
      "prices": {
        "details": "Mapping of asset prices (asset => price)"
      }
    },
    "title": "FallbackPriceOracle Contract",
    "version": 1
  },
  "userdoc": {
    "events": {
      "AssetPriceUpdated(address,uint256,uint256)": {
        "notice": "Emitted when an asset's price is updated"
      },
      "EthPriceUpdated(uint256,uint256)": {
        "notice": "Emitted when the ETH to USD price is updated"
      }
    },
    "kind": "user",
    "methods": {
      "OWNER_ADMIN()": {
        "notice": "Identifier for the OWNER_ADMIN role"
      },
      "constructor": {
        "notice": "Constructor that grants the OWNER_ADMIN and DEFAULT_ADMIN_ROLE to the deployer"
      },
      "getAssetPrice(address)": {
        "notice": "Returns the asset price in the base currency"
      },
      "getEthUsdPrice()": {
        "notice": "Returns the price of ETH in USD"
      },
      "setAssetPrice(address,uint256)": {
        "notice": "Set the price of the asset"
      },
      "setEthUsdPrice(uint256)": {
        "notice": "Updates the ETH to USD price"
      }
    },
    "notice": "This contract manages asset prices and the ETH to USD price, with access control for updating these prices.",
    "version": 1
  },
  "storageLayout": {
    "storage": [
      {
        "astId": 42922,
        "contract": "contracts/oracle/FallbackPriceOracle.sol:FallbackPriceOracle",
        "label": "_roles",
        "offset": 0,
        "slot": "0",
        "type": "t_mapping(t_bytes32,t_struct(RoleData)42917_storage)"
      },
      {
        "astId": 44696,
        "contract": "contracts/oracle/FallbackPriceOracle.sol:FallbackPriceOracle",
        "label": "prices",
        "offset": 0,
        "slot": "1",
        "type": "t_mapping(t_address,t_uint256)"
      },
      {
        "astId": 44699,
        "contract": "contracts/oracle/FallbackPriceOracle.sol:FallbackPriceOracle",
        "label": "ethPriceUsd",
        "offset": 0,
        "slot": "2",
        "type": "t_uint256"
      }
    ],
    "types": {
      "t_address": {
        "encoding": "inplace",
        "label": "address",
        "numberOfBytes": "20"
      },
      "t_bool": {
        "encoding": "inplace",
        "label": "bool",
        "numberOfBytes": "1"
      },
      "t_bytes32": {
        "encoding": "inplace",
        "label": "bytes32",
        "numberOfBytes": "32"
      },
      "t_mapping(t_address,t_bool)": {
        "encoding": "mapping",
        "key": "t_address",
        "label": "mapping(address => bool)",
        "numberOfBytes": "32",
        "value": "t_bool"
      },
      "t_mapping(t_address,t_uint256)": {
        "encoding": "mapping",
        "key": "t_address",
        "label": "mapping(address => uint256)",
        "numberOfBytes": "32",
        "value": "t_uint256"
      },
      "t_mapping(t_bytes32,t_struct(RoleData)42917_storage)": {
        "encoding": "mapping",
        "key": "t_bytes32",
        "label": "mapping(bytes32 => struct AccessControl.RoleData)",
        "numberOfBytes": "32",
        "value": "t_struct(RoleData)42917_storage"
      },
      "t_struct(RoleData)42917_storage": {
        "encoding": "inplace",
        "label": "struct AccessControl.RoleData",
        "members": [
          {
            "astId": 42914,
            "contract": "contracts/oracle/FallbackPriceOracle.sol:FallbackPriceOracle",
            "label": "members",
            "offset": 0,
            "slot": "0",
            "type": "t_mapping(t_address,t_bool)"
          },
          {
            "astId": 42916,
            "contract": "contracts/oracle/FallbackPriceOracle.sol:FallbackPriceOracle",
            "label": "adminRole",
            "offset": 0,
            "slot": "1",
            "type": "t_bytes32"
          }
        ],
        "numberOfBytes": "64"
      },
      "t_uint256": {
        "encoding": "inplace",
        "label": "uint256",
        "numberOfBytes": "32"
      }
    }
  }
}