{
  "address": "0x99A8950570B65131e62A7D37958ce8e767045f2D",
  "abi": [
    {
      "inputs": [
        {
          "internalType": "address",
          "name": "emissionManager",
          "type": "address"
        }
      ],
      "stateMutability": "nonpayable",
      "type": "constructor"
    },
    {
      "anonymous": false,
      "inputs": [
        {
          "indexed": true,
          "internalType": "address",
          "name": "asset",
          "type": "address"
        },
        {
          "indexed": true,
          "internalType": "address",
          "name": "reward",
          "type": "address"
        },
        {
          "indexed": true,
          "internalType": "address",
          "name": "user",
          "type": "address"
        },
        {
          "indexed": false,
          "internalType": "uint256",
          "name": "assetIndex",
          "type": "uint256"
        },
        {
          "indexed": false,
          "internalType": "uint256",
          "name": "userIndex",
          "type": "uint256"
        },
        {
          "indexed": false,
          "internalType": "uint256",
          "name": "rewardsAccrued",
          "type": "uint256"
        }
      ],
      "name": "Accrued",
      "type": "event"
    },
    {
      "anonymous": false,
      "inputs": [
        {
          "indexed": true,
          "internalType": "address",
          "name": "asset",
          "type": "address"
        },
        {
          "indexed": true,
          "internalType": "address",
          "name": "reward",
          "type": "address"
        },
        {
          "indexed": false,
          "internalType": "uint256",
          "name": "oldEmission",
          "type": "uint256"
        },
        {
          "indexed": false,
          "internalType": "uint256",
          "name": "newEmission",
          "type": "uint256"
        },
        {
          "indexed": false,
          "internalType": "uint256",
          "name": "oldDistributionEnd",
          "type": "uint256"
        },
        {
          "indexed": false,
          "internalType": "uint256",
          "name": "newDistributionEnd",
          "type": "uint256"
        },
        {
          "indexed": false,
          "internalType": "uint256",
          "name": "assetIndex",
          "type": "uint256"
        }
      ],
      "name": "AssetConfigUpdated",
      "type": "event"
    },
    {
      "anonymous": false,
      "inputs": [
        {
          "indexed": true,
          "internalType": "address",
          "name": "user",
          "type": "address"
        },
        {
          "indexed": true,
          "internalType": "address",
          "name": "claimer",
          "type": "address"
        }
      ],
      "name": "ClaimerSet",
      "type": "event"
    },
    {
      "anonymous": false,
      "inputs": [
        {
          "indexed": true,
          "internalType": "address",
          "name": "reward",
          "type": "address"
        },
        {
          "indexed": true,
          "internalType": "address",
          "name": "rewardOracle",
          "type": "address"
        }
      ],
      "name": "RewardOracleUpdated",
      "type": "event"
    },
    {
      "anonymous": false,
      "inputs": [
        {
          "indexed": true,
          "internalType": "address",
          "name": "user",
          "type": "address"
        },
        {
          "indexed": true,
          "internalType": "address",
          "name": "reward",
          "type": "address"
        },
        {
          "indexed": true,
          "internalType": "address",
          "name": "to",
          "type": "address"
        },
        {
          "indexed": false,
          "internalType": "address",
          "name": "claimer",
          "type": "address"
        },
        {
          "indexed": false,
          "internalType": "uint256",
          "name": "amount",
          "type": "uint256"
        }
      ],
      "name": "RewardsClaimed",
      "type": "event"
    },
    {
      "anonymous": false,
      "inputs": [
        {
          "indexed": true,
          "internalType": "address",
          "name": "reward",
          "type": "address"
        },
        {
          "indexed": true,
          "internalType": "address",
          "name": "transferStrategy",
          "type": "address"
        }
      ],
      "name": "TransferStrategyInstalled",
      "type": "event"
    },
    {
      "inputs": [],
      "name": "EMISSION_MANAGER",
      "outputs": [
        {
          "internalType": "address",
          "name": "",
          "type": "address"
        }
      ],
      "stateMutability": "view",
      "type": "function"
    },
    {
      "inputs": [],
      "name": "REVISION",
      "outputs": [
        {
          "internalType": "uint256",
          "name": "",
          "type": "uint256"
        }
      ],
      "stateMutability": "view",
      "type": "function"
    },
    {
      "inputs": [
        {
          "internalType": "address[]",
          "name": "assets",
          "type": "address[]"
        },
        {
          "internalType": "address",
          "name": "to",
          "type": "address"
        }
      ],
      "name": "claimAllRewards",
      "outputs": [
        {
          "internalType": "address[]",
          "name": "rewardsList",
          "type": "address[]"
        },
        {
          "internalType": "uint256[]",
          "name": "claimedAmounts",
          "type": "uint256[]"
        }
      ],
      "stateMutability": "nonpayable",
      "type": "function"
    },
    {
      "inputs": [
        {
          "internalType": "address[]",
          "name": "assets",
          "type": "address[]"
        },
        {
          "internalType": "address",
          "name": "user",
          "type": "address"
        },
        {
          "internalType": "address",
          "name": "to",
          "type": "address"
        }
      ],
      "name": "claimAllRewardsOnBehalf",
      "outputs": [
        {
          "internalType": "address[]",
          "name": "rewardsList",
          "type": "address[]"
        },
        {
          "internalType": "uint256[]",
          "name": "claimedAmounts",
          "type": "uint256[]"
        }
      ],
      "stateMutability": "nonpayable",
      "type": "function"
    },
    {
      "inputs": [
        {
          "internalType": "address[]",
          "name": "assets",
          "type": "address[]"
        }
      ],
      "name": "claimAllRewardsToSelf",
      "outputs": [
        {
          "internalType": "address[]",
          "name": "rewardsList",
          "type": "address[]"
        },
        {
          "internalType": "uint256[]",
          "name": "claimedAmounts",
          "type": "uint256[]"
        }
      ],
      "stateMutability": "nonpayable",
      "type": "function"
    },
    {
      "inputs": [
        {
          "internalType": "address[]",
          "name": "assets",
          "type": "address[]"
        },
        {
          "internalType": "uint256",
          "name": "amount",
          "type": "uint256"
        },
        {
          "internalType": "address",
          "name": "to",
          "type": "address"
        },
        {
          "internalType": "address",
          "name": "reward",
          "type": "address"
        }
      ],
      "name": "claimRewards",
      "outputs": [
        {
          "internalType": "uint256",
          "name": "",
          "type": "uint256"
        }
      ],
      "stateMutability": "nonpayable",
      "type": "function"
    },
    {
      "inputs": [
        {
          "internalType": "address[]",
          "name": "assets",
          "type": "address[]"
        },
        {
          "internalType": "uint256",
          "name": "amount",
          "type": "uint256"
        },
        {
          "internalType": "address",
          "name": "user",
          "type": "address"
        },
        {
          "internalType": "address",
          "name": "to",
          "type": "address"
        },
        {
          "internalType": "address",
          "name": "reward",
          "type": "address"
        }
      ],
      "name": "claimRewardsOnBehalf",
      "outputs": [
        {
          "internalType": "uint256",
          "name": "",
          "type": "uint256"
        }
      ],
      "stateMutability": "nonpayable",
      "type": "function"
    },
    {
      "inputs": [
        {
          "internalType": "address[]",
          "name": "assets",
          "type": "address[]"
        },
        {
          "internalType": "uint256",
          "name": "amount",
          "type": "uint256"
        },
        {
          "internalType": "address",
          "name": "reward",
          "type": "address"
        }
      ],
      "name": "claimRewardsToSelf",
      "outputs": [
        {
          "internalType": "uint256",
          "name": "",
          "type": "uint256"
        }
      ],
      "stateMutability": "nonpayable",
      "type": "function"
    },
    {
      "inputs": [
        {
          "components": [
            {
              "internalType": "uint88",
              "name": "emissionPerSecond",
              "type": "uint88"
            },
            {
              "internalType": "uint256",
              "name": "totalSupply",
              "type": "uint256"
            },
            {
              "internalType": "uint32",
              "name": "distributionEnd",
              "type": "uint32"
            },
            {
              "internalType": "address",
              "name": "asset",
              "type": "address"
            },
            {
              "internalType": "address",
              "name": "reward",
              "type": "address"
            },
            {
              "internalType": "contract ITransferStrategyBase",
              "name": "transferStrategy",
              "type": "address"
            },
            {
              "internalType": "contract IEACAggregatorProxy",
              "name": "rewardOracle",
              "type": "address"
            }
          ],
          "internalType": "struct RewardsDataTypes.RewardsConfigInput[]",
          "name": "config",
          "type": "tuple[]"
        }
      ],
      "name": "configureAssets",
      "outputs": [],
      "stateMutability": "nonpayable",
      "type": "function"
    },
    {
      "inputs": [
        {
          "internalType": "address[]",
          "name": "assets",
          "type": "address[]"
        },
        {
          "internalType": "address",
          "name": "user",
          "type": "address"
        }
      ],
      "name": "getAllUserRewards",
      "outputs": [
        {
          "internalType": "address[]",
          "name": "rewardsList",
          "type": "address[]"
        },
        {
          "internalType": "uint256[]",
          "name": "unclaimedAmounts",
          "type": "uint256[]"
        }
      ],
      "stateMutability": "view",
      "type": "function"
    },
    {
      "inputs": [
        {
          "internalType": "address",
          "name": "asset",
          "type": "address"
        }
      ],
      "name": "getAssetDecimals",
      "outputs": [
        {
          "internalType": "uint8",
          "name": "",
          "type": "uint8"
        }
      ],
      "stateMutability": "view",
      "type": "function"
    },
    {
      "inputs": [
        {
          "internalType": "address",
          "name": "asset",
          "type": "address"
        },
        {
          "internalType": "address",
          "name": "reward",
          "type": "address"
        }
      ],
      "name": "getAssetIndex",
      "outputs": [
        {
          "internalType": "uint256",
          "name": "",
          "type": "uint256"
        },
        {
          "internalType": "uint256",
          "name": "",
          "type": "uint256"
        }
      ],
      "stateMutability": "view",
      "type": "function"
    },
    {
      "inputs": [
        {
          "internalType": "address",
          "name": "user",
          "type": "address"
        }
      ],
      "name": "getClaimer",
      "outputs": [
        {
          "internalType": "address",
          "name": "",
          "type": "address"
        }
      ],
      "stateMutability": "view",
      "type": "function"
    },
    {
      "inputs": [
        {
          "internalType": "address",
          "name": "asset",
          "type": "address"
        },
        {
          "internalType": "address",
          "name": "reward",
          "type": "address"
        }
      ],
      "name": "getDistributionEnd",
      "outputs": [
        {
          "internalType": "uint256",
          "name": "",
          "type": "uint256"
        }
      ],
      "stateMutability": "view",
      "type": "function"
    },
    {
      "inputs": [],
      "name": "getEmissionManager",
      "outputs": [
        {
          "internalType": "address",
          "name": "",
          "type": "address"
        }
      ],
      "stateMutability": "view",
      "type": "function"
    },
    {
      "inputs": [
        {
          "internalType": "address",
          "name": "reward",
          "type": "address"
        }
      ],
      "name": "getRewardOracle",
      "outputs": [
        {
          "internalType": "address",
          "name": "",
          "type": "address"
        }
      ],
      "stateMutability": "view",
      "type": "function"
    },
    {
      "inputs": [
        {
          "internalType": "address",
          "name": "asset",
          "type": "address"
        }
      ],
      "name": "getRewardsByAsset",
      "outputs": [
        {
          "internalType": "address[]",
          "name": "",
          "type": "address[]"
        }
      ],
      "stateMutability": "view",
      "type": "function"
    },
    {
      "inputs": [
        {
          "internalType": "address",
          "name": "asset",
          "type": "address"
        },
        {
          "internalType": "address",
          "name": "reward",
          "type": "address"
        }
      ],
      "name": "getRewardsData",
      "outputs": [
        {
          "internalType": "uint256",
          "name": "",
          "type": "uint256"
        },
        {
          "internalType": "uint256",
          "name": "",
          "type": "uint256"
        },
        {
          "internalType": "uint256",
          "name": "",
          "type": "uint256"
        },
        {
          "internalType": "uint256",
          "name": "",
          "type": "uint256"
        }
      ],
      "stateMutability": "view",
      "type": "function"
    },
    {
      "inputs": [],
      "name": "getRewardsList",
      "outputs": [
        {
          "internalType": "address[]",
          "name": "",
          "type": "address[]"
        }
      ],
      "stateMutability": "view",
      "type": "function"
    },
    {
      "inputs": [
        {
          "internalType": "address",
          "name": "reward",
          "type": "address"
        }
      ],
      "name": "getTransferStrategy",
      "outputs": [
        {
          "internalType": "address",
          "name": "",
          "type": "address"
        }
      ],
      "stateMutability": "view",
      "type": "function"
    },
    {
      "inputs": [
        {
          "internalType": "address",
          "name": "user",
          "type": "address"
        },
        {
          "internalType": "address",
          "name": "reward",
          "type": "address"
        }
      ],
      "name": "getUserAccruedRewards",
      "outputs": [
        {
          "internalType": "uint256",
          "name": "",
          "type": "uint256"
        }
      ],
      "stateMutability": "view",
      "type": "function"
    },
    {
      "inputs": [
        {
          "internalType": "address",
          "name": "user",
          "type": "address"
        },
        {
          "internalType": "address",
          "name": "asset",
          "type": "address"
        },
        {
          "internalType": "address",
          "name": "reward",
          "type": "address"
        }
      ],
      "name": "getUserAssetIndex",
      "outputs": [
        {
          "internalType": "uint256",
          "name": "",
          "type": "uint256"
        }
      ],
      "stateMutability": "view",
      "type": "function"
    },
    {
      "inputs": [
        {
          "internalType": "address[]",
          "name": "assets",
          "type": "address[]"
        },
        {
          "internalType": "address",
          "name": "user",
          "type": "address"
        },
        {
          "internalType": "address",
          "name": "reward",
          "type": "address"
        }
      ],
      "name": "getUserRewards",
      "outputs": [
        {
          "internalType": "uint256",
          "name": "",
          "type": "uint256"
        }
      ],
      "stateMutability": "view",
      "type": "function"
    },
    {
      "inputs": [
        {
          "internalType": "address",
          "name": "user",
          "type": "address"
        },
        {
          "internalType": "uint256",
          "name": "totalSupply",
          "type": "uint256"
        },
        {
          "internalType": "uint256",
          "name": "userBalance",
          "type": "uint256"
        }
      ],
      "name": "handleAction",
      "outputs": [],
      "stateMutability": "nonpayable",
      "type": "function"
    },
    {
      "inputs": [
        {
          "internalType": "address",
          "name": "",
          "type": "address"
        }
      ],
      "name": "initialize",
      "outputs": [],
      "stateMutability": "nonpayable",
      "type": "function"
    },
    {
      "inputs": [
        {
          "internalType": "address",
          "name": "user",
          "type": "address"
        },
        {
          "internalType": "address",
          "name": "caller",
          "type": "address"
        }
      ],
      "name": "setClaimer",
      "outputs": [],
      "stateMutability": "nonpayable",
      "type": "function"
    },
    {
      "inputs": [
        {
          "internalType": "address",
          "name": "asset",
          "type": "address"
        },
        {
          "internalType": "address",
          "name": "reward",
          "type": "address"
        },
        {
          "internalType": "uint32",
          "name": "newDistributionEnd",
          "type": "uint32"
        }
      ],
      "name": "setDistributionEnd",
      "outputs": [],
      "stateMutability": "nonpayable",
      "type": "function"
    },
    {
      "inputs": [
        {
          "internalType": "address",
          "name": "asset",
          "type": "address"
        },
        {
          "internalType": "address[]",
          "name": "rewards",
          "type": "address[]"
        },
        {
          "internalType": "uint88[]",
          "name": "newEmissionsPerSecond",
          "type": "uint88[]"
        }
      ],
      "name": "setEmissionPerSecond",
      "outputs": [],
      "stateMutability": "nonpayable",
      "type": "function"
    },
    {
      "inputs": [
        {
          "internalType": "address",
          "name": "reward",
          "type": "address"
        },
        {
          "internalType": "contract IEACAggregatorProxy",
          "name": "rewardOracle",
          "type": "address"
        }
      ],
      "name": "setRewardOracle",
      "outputs": [],
      "stateMutability": "nonpayable",
      "type": "function"
    },
    {
      "inputs": [
        {
          "internalType": "address",
          "name": "reward",
          "type": "address"
        },
        {
          "internalType": "contract ITransferStrategyBase",
          "name": "transferStrategy",
          "type": "address"
        }
      ],
      "name": "setTransferStrategy",
      "outputs": [],
      "stateMutability": "nonpayable",
      "type": "function"
    }
  ],
  "transactionHash": "0x63f77097cb44c1f19e6f1938f49b6becfe1e2556918d5ed5cd21f19c30c1b2ef",
  "args": [
    "0xfeF0A90cEBE37839E122E6d5c8f9751A0a36d49c"
  ],
  "numDeployments": 1,
  "solcInputHash": "064a3948b0a7f15e784edb20aa805bc2",
  "bytecode": "0x60a060405260006005553480156200001657600080fd5b506040516200499f3803806200499f83398101604081905262000039916200004b565b6001600160a01b03166080526200007d565b6000602082840312156200005e57600080fd5b81516001600160a01b03811681146200007657600080fd5b9392505050565b6080516148d5620000ca600039600081816104f40152818161060c01528181610c9701528181610fd60152818161167d01528181611833015281816118dc01526119f701526148d56000f3fe608060405234801561001057600080fd5b50600436106101da5760003560e01c806392074b0811610104578063bf90f63a116100a2578063dde43cba11610071578063dde43cba1461062e578063e15ac62314610636578063f5cf673b14610649578063f996868b1461065c57600080fd5b8063bf90f63a146105ce578063c4d66de8146105e1578063c5a7b538146105f4578063cbcbb5071461060757600080fd5b80639ff55db9116100de5780639ff55db91461058d578063b022418c146105a0578063b45ac1a9146105b3578063bb492bf5146105bb57600080fd5b806392074b08146104f2578063955c2ad7146105185780639efd6f721461052b57600080fd5b80635453ba101161017c57806370674ab91161014b57806370674ab9146103a257806374d945ec146103b55780637eff4ba8146103ee578063886fe70b146104ca57600080fd5b80635453ba101461032357806357b89883146103365780635f130b24146103495780636657732f1461038257600080fd5b806331873e2e116101b857806331873e2e1461027657806333028b991461028b5780634c0369c31461029e578063533f542a146102bf57600080fd5b80631b839c77146101df578063236300dc146102055780632a17bf6014610218575b600080fd5b6101f26101ed366004613e6d565b61066f565b6040519081526020015b60405180910390f35b6101f2610213366004613eeb565b6106cf565b610251610226366004613f5f565b73ffffffffffffffffffffffffffffffffffffffff9081166000908152603b60205260409020541690565b60405173ffffffffffffffffffffffffffffffffffffffff90911681526020016101fc565b610289610284366004613f83565b61076c565b005b6101f2610299366004613fb8565b61077d565b6102b16102ac36600461403d565b610929565b6040516101fc9291906140e5565b6101f26102cd36600461413c565b73ffffffffffffffffffffffffffffffffffffffff808316600090815260016020818152604080842086861685528252808420948816845293909101905220546cffffffffffffffffffffffffff169392505050565b610289610331366004613e6d565b610c7f565b6101f261034436600461417c565b610d2c565b610251610357366004613f5f565b73ffffffffffffffffffffffffffffffffffffffff9081166000908152603a60205260409020541690565b610395610390366004613f5f565b610d46565b6040516101fc91906141db565b6101f26103b03660046141ee565b610e98565b6102516103c3366004613f5f565b73ffffffffffffffffffffffffffffffffffffffff9081166000908152603960205260409020541690565b6104aa6103fc366004613e6d565b73ffffffffffffffffffffffffffffffffffffffff91821660009081526001602090815260408083209390941682529190915220546cffffffffffffffffffffffffff8116916affffffffffffffffffffff6d01000000000000000000000000008304169163ffffffff780100000000000000000000000000000000000000000000000082048116927c01000000000000000000000000000000000000000000000000000000009092041690565b6040805194855260208501939093529183015260608201526080016101fc565b6104dd6104d8366004613e6d565b610eaf565b604080519283526020830191909152016101fc565b7f0000000000000000000000000000000000000000000000000000000000000000610251565b610289610526366004614326565b610fbe565b61057b610539366004613f5f565b73ffffffffffffffffffffffffffffffffffffffff16600090815260016020526040902060020154700100000000000000000000000000000000900460ff1690565b60405160ff90911681526020016101fc565b6102b161059b3660046141ee565b6111be565b6101f26105ae366004613e6d565b61136d565b610395611426565b6102b16105c936600461403d565b611495565b6102b16105dc366004614454565b61152e565b6102896105ef366004613f5f565b611549565b610289610602366004614496565b611665565b6102517f000000000000000000000000000000000000000000000000000000000000000081565b6101f2600181565b610289610644366004613e6d565b61181b565b610289610657366004613e6d565b6118c4565b61028961066a3660046144dd565b6119df565b73ffffffffffffffffffffffffffffffffffffffff8281166000908152600160209081526040808320938516835292905220547c0100000000000000000000000000000000000000000000000000000000900463ffffffff165b92915050565b600073ffffffffffffffffffffffffffffffffffffffff8316610753576040517f08c379a000000000000000000000000000000000000000000000000000000000815260206004820152601260248201527f494e56414c49445f544f5f41444452455353000000000000000000000000000060448201526064015b60405180910390fd5b61076286868633338888611e53565b9695505050505050565b610778338483856120e4565b505050565b73ffffffffffffffffffffffffffffffffffffffff808416600090815260396020526040812054909133918691168214610813576040517f08c379a000000000000000000000000000000000000000000000000000000000815260206004820152601460248201527f434c41494d45525f554e415554484f52495a4544000000000000000000000000604482015260640161074a565b73ffffffffffffffffffffffffffffffffffffffff8616610890576040517f08c379a000000000000000000000000000000000000000000000000000000000815260206004820152601460248201527f494e56414c49445f555345525f41444452455353000000000000000000000000604482015260640161074a565b73ffffffffffffffffffffffffffffffffffffffff851661090d576040517f08c379a000000000000000000000000000000000000000000000000000000000815260206004820152601260248201527f494e56414c49445f544f5f414444524553530000000000000000000000000000604482015260640161074a565b61091c898989338a8a8a611e53565b9998505050505050505050565b6060806000610939868686612297565b60035490915067ffffffffffffffff8111156109575761095761424b565b604051908082528060200260200182016040528015610980578160200160208202803683370190505b509250825167ffffffffffffffff81111561099d5761099d61424b565b6040519080825280602002602001820160405280156109c6578160200160208202803683370190505b50915060005b8151811015610c745760005b8451811015610c6157600381815481106109f4576109f4614560565b9060005260206000200160009054906101000a900473ffffffffffffffffffffffffffffffffffffffff16858281518110610a3157610a31614560565b602002602001019073ffffffffffffffffffffffffffffffffffffffff16908173ffffffffffffffffffffffffffffffffffffffff168152505060016000848481518110610a8157610a81614560565b60200260200101516000015173ffffffffffffffffffffffffffffffffffffffff1673ffffffffffffffffffffffffffffffffffffffff1681526020019081526020016000206000016000868381518110610ade57610ade614560565b602002602001015173ffffffffffffffffffffffffffffffffffffffff1673ffffffffffffffffffffffffffffffffffffffff16815260200190815260200160002060010160008773ffffffffffffffffffffffffffffffffffffffff1673ffffffffffffffffffffffffffffffffffffffff168152602001908152602001600020600001600d9054906101000a90046fffffffffffffffffffffffffffffffff166fffffffffffffffffffffffffffffffff16848281518110610ba457610ba4614560565b60200260200101818151610bb891906145be565b9052508251839083908110610bcf57610bcf614560565b60200260200101516020015160001415610be857610c4f565b610c2586868381518110610bfe57610bfe614560565b6020026020010151858581518110610c1857610c18614560565b6020026020010151612495565b848281518110610c3757610c37614560565b60200260200101818151610c4b91906145be565b9052505b80610c59816145d6565b9150506109d8565b5080610c6c816145d6565b9150506109cc565b50505b935093915050565b3373ffffffffffffffffffffffffffffffffffffffff7f00000000000000000000000000000000000000000000000000000000000000001614610d1e576040517f08c379a000000000000000000000000000000000000000000000000000000000815260206004820152601560248201527f4f4e4c595f454d495353494f4e5f4d414e414745520000000000000000000000604482015260640161074a565b610d288282612563565b5050565b6000610d3d85858533333388611e53565b95945050505050565b73ffffffffffffffffffffffffffffffffffffffff81166000908152600160205260408120600201546060916fffffffffffffffffffffffffffffffff909116908167ffffffffffffffff811115610da057610da061424b565b604051908082528060200260200182016040528015610dc9578160200160208202803683370190505b50905060005b826fffffffffffffffffffffffffffffffff16816fffffffffffffffffffffffffffffffff161015610e905773ffffffffffffffffffffffffffffffffffffffff80861660009081526001602081815260408084206fffffffffffffffffffffffffffffffff871680865293019091529091205484519216918491908110610e5957610e59614560565b73ffffffffffffffffffffffffffffffffffffffff9092166020928302919091019091015280610e888161460f565b915050610dcf565b509392505050565b6000610d3d8383610eaa888888612297565b6126b7565b73ffffffffffffffffffffffffffffffffffffffff8083166000818152600160209081526040808320948616835293815283822084517fb1bf962d0000000000000000000000000000000000000000000000000000000081529451929485949193610fb19385939263b1bf962d92600480830193928290030181865afa158015610f3d573d6000803e3d6000fd5b505050506040513d601f19601f82011682018060405250810190610f61919061463f565b73ffffffffffffffffffffffffffffffffffffffff8816600090815260016020526040902060020154610fac90700100000000000000000000000000000000900460ff16600a614778565b612856565b92509250505b9250929050565b3373ffffffffffffffffffffffffffffffffffffffff7f0000000000000000000000000000000000000000000000000000000000000000161461105d576040517f08c379a000000000000000000000000000000000000000000000000000000000815260206004820152601560248201527f4f4e4c595f454d495353494f4e5f4d414e414745520000000000000000000000604482015260640161074a565b60005b81518110156111b15781818151811061107b5761107b614560565b60200260200101516060015173ffffffffffffffffffffffffffffffffffffffff1663b1bf962d6040518163ffffffff1660e01b8152600401602060405180830381865afa1580156110d1573d6000803e3d6000fd5b505050506040513d601f19601f820116820180604052508101906110f5919061463f565b82828151811061110757611107614560565b6020026020010151602001818152505061115b82828151811061112c5761112c614560565b60200260200101516080015183838151811061114a5761114a614560565b602002602001015160a00151612962565b61119f82828151811061117057611170614560565b60200260200101516080015183838151811061118e5761118e614560565b602002602001015160c00151612563565b806111a9816145d6565b915050611060565b506111bb81612ac8565b50565b73ffffffffffffffffffffffffffffffffffffffff808316600090815260396020526040902054606091829133918691168214611257576040517f08c379a000000000000000000000000000000000000000000000000000000000815260206004820152601460248201527f434c41494d45525f554e415554484f52495a4544000000000000000000000000604482015260640161074a565b73ffffffffffffffffffffffffffffffffffffffff86166112d4576040517f08c379a000000000000000000000000000000000000000000000000000000000815260206004820152601460248201527f494e56414c49445f555345525f41444452455353000000000000000000000000604482015260640161074a565b73ffffffffffffffffffffffffffffffffffffffff8516611351576040517f08c379a000000000000000000000000000000000000000000000000000000000815260206004820152601260248201527f494e56414c49445f544f5f414444524553530000000000000000000000000000604482015260640161074a565b61135e8888338989613369565b93509350505094509492505050565b60008060005b600454811015610e9057600160006004838154811061139457611394614560565b60009182526020808320919091015473ffffffffffffffffffffffffffffffffffffffff908116845283820194909452604092830182208885168352815282822093891682526001909301909252902054611412906d010000000000000000000000000090046fffffffffffffffffffffffffffffffff16836145be565b91508061141e816145d6565b915050611373565b6060600380548060200260200160405190810160405280929190818152602001828054801561148b57602002820191906000526020600020905b815473ffffffffffffffffffffffffffffffffffffffff168152600190910190602001808311611460575b5050505050905090565b60608073ffffffffffffffffffffffffffffffffffffffff8316611515576040517f08c379a000000000000000000000000000000000000000000000000000000000815260206004820152601260248201527f494e56414c49445f544f5f414444524553530000000000000000000000000000604482015260640161074a565b6115228585333387613369565b91509150935093915050565b60608061153e8484333333613369565b915091509250929050565b60065460019060ff168061155c5750303b155b80611568575060055481115b6115f4576040517f08c379a000000000000000000000000000000000000000000000000000000000815260206004820152602e60248201527f436f6e747261637420696e7374616e63652068617320616c726561647920626560448201527f656e20696e697469616c697a6564000000000000000000000000000000000000606482015260840161074a565b60065460ff1615801561163257600680547fffffffffffffffffffffffffffffffffffffffffffffffffffffffffffffff0016600117905560058290555b801561077857600680547fffffffffffffffffffffffffffffffffffffffffffffffffffffffffffffff00169055505050565b3373ffffffffffffffffffffffffffffffffffffffff7f00000000000000000000000000000000000000000000000000000000000000001614611704576040517f08c379a000000000000000000000000000000000000000000000000000000000815260206004820152601560248201527f4f4e4c595f454d495353494f4e5f4d414e414745520000000000000000000000604482015260640161074a565b73ffffffffffffffffffffffffffffffffffffffff83811660008181526001602090815260408083209487168084529482529182902080547bffffffffffffffffffffffffffffffffffffffffffffffffffffffff81167c010000000000000000000000000000000000000000000000000000000063ffffffff8981168281029384179586905587516d01000000000000000000000000009096046affffffffffffffffffffff16808752968601969096529083041694830185905260608301939093526cffffffffffffffffffffffffff9081169216919091176080820152909291907fac1777479f07f3e7c34da8402139d54027a6a260caaae168bdee825ca5580dc59060a00160405180910390a350505050565b3373ffffffffffffffffffffffffffffffffffffffff7f000000000000000000000000000000000000000000000000000000000000000016146118ba576040517f08c379a000000000000000000000000000000000000000000000000000000000815260206004820152601560248201527f4f4e4c595f454d495353494f4e5f4d414e414745520000000000000000000000604482015260640161074a565b610d288282612962565b3373ffffffffffffffffffffffffffffffffffffffff7f00000000000000000000000000000000000000000000000000000000000000001614611963576040517f08c379a000000000000000000000000000000000000000000000000000000000815260206004820152601560248201527f4f4e4c595f454d495353494f4e5f4d414e414745520000000000000000000000604482015260640161074a565b73ffffffffffffffffffffffffffffffffffffffff82811660008181526039602052604080822080547fffffffffffffffffffffffff0000000000000000000000000000000000000000169486169485179055517f4925eafc82d0c4d67889898eeed64b18488ab19811e61620f387026dec126a289190a35050565b3373ffffffffffffffffffffffffffffffffffffffff7f00000000000000000000000000000000000000000000000000000000000000001614611a7e576040517f08c379a000000000000000000000000000000000000000000000000000000000815260206004820152601560248201527f4f4e4c595f454d495353494f4e5f4d414e414745520000000000000000000000604482015260640161074a565b828114611ae7576040517f08c379a000000000000000000000000000000000000000000000000000000000815260206004820152600d60248201527f494e56414c49445f494e50555400000000000000000000000000000000000000604482015260640161074a565b60005b83811015611e4b5773ffffffffffffffffffffffffffffffffffffffff86166000908152600160205260408120908181888886818110611b2c57611b2c614560565b9050602002016020810190611b419190613f5f565b73ffffffffffffffffffffffffffffffffffffffff16815260208101919091526040016000206002830154909150700100000000000000000000000000000000900460ff168015801590611bb7575081547801000000000000000000000000000000000000000000000000900463ffffffff1615155b611c1d576040517f08c379a000000000000000000000000000000000000000000000000000000000815260206004820152601b60248201527f444953545249425554494f4e5f444f45535f4e4f545f45584953540000000000604482015260640161074a565b6000611ca2838b73ffffffffffffffffffffffffffffffffffffffff1663b1bf962d6040518163ffffffff1660e01b8152600401602060405180830381865afa158015611c6e573d6000803e3d6000fd5b505050506040513d601f19601f82011682018060405250810190611c92919061463f565b611c9d85600a614787565b613851565b5083549091506d010000000000000000000000000090046affffffffffffffffffffff16878787818110611cd857611cd8614560565b9050602002016020810190611ced9190614793565b84546affffffffffffffffffffff919091166d0100000000000000000000000000027fffffffffffffffff0000000000000000000000ffffffffffffffffffffffffff909116178455898987818110611d4857611d48614560565b9050602002016020810190611d5d9190613f5f565b73ffffffffffffffffffffffffffffffffffffffff168b73ffffffffffffffffffffffffffffffffffffffff167fac1777479f07f3e7c34da8402139d54027a6a260caaae168bdee825ca5580dc5838b8b8b818110611dbe57611dbe614560565b9050602002016020810190611dd39190614793565b8854604080519384526affffffffffffffffffffff90921660208401527c0100000000000000000000000000000000000000000000000000000000900463ffffffff1690820181905260608201526080810186905260a00160405180910390a350505050508080611e43906145d6565b915050611aea565b505050505050565b600085611e62575060006120d9565b6000611e7885611e738b8b89612297565b6139df565b60005b8881101561205f5760008a8a83818110611e9757611e97614560565b9050602002016020810190611eac9190613f5f565b73ffffffffffffffffffffffffffffffffffffffff81811660009081526001602081815260408084208b861685528252808420948d1684529390910190522054909150611f1c906d010000000000000000000000000090046fffffffffffffffffffffffffffffffff16846145be565b9250888311611f8f5773ffffffffffffffffffffffffffffffffffffffff80821660009081526001602081815260408084208a861685528252808420948c1684529390910190522080547fffffff00000000000000000000000000000000ffffffffffffffffffffffffff16905561204c565b6000611f9b8a856147ae565b9050611fa781856147ae565b9350611fb281613a60565b73ffffffffffffffffffffffffffffffffffffffff92831660009081526001602081815260408084208b881685528252808420968d1684529590910190529290922080546fffffffffffffffffffffffffffffffff939093166d0100000000000000000000000000027fffffff00000000000000000000000000000000ffffffffffffffffffffffffff909316929092179091555061205f565b5080612057816145d6565b915050611e7b565b508061206f5760009150506120d9565b61207a848483613b06565b6040805173ffffffffffffffffffffffffffffffffffffffff8881168252602082018490528087169286821692918916917fc052130bc4ef84580db505783484b067ea8b71b3bca78a7e12db7aea8658f004910160405180910390a490505b979650505050505050565b73ffffffffffffffffffffffffffffffffffffffff841660009081526001602052604090206002015460ff700100000000000000000000000000000000820416600a0a906fffffffffffffffffffffffffffffffff1680612146575050612291565b60005b81816fffffffffffffffffffffffffffffffff16101561228d5773ffffffffffffffffffffffffffffffffffffffff80881660009081526001602081815260408084206fffffffffffffffffffffffffffffffff8716855292830182528084205490941680845291905291812090806121c3838989613851565b915091506000806121d7858d8d878d613c32565b9150915082806121e45750805b1561227b578b73ffffffffffffffffffffffffffffffffffffffff168673ffffffffffffffffffffffffffffffffffffffff168e73ffffffffffffffffffffffffffffffffffffffff167f3303facd24627943a92e9dc87cfbb34b15c49b726eec3ad3487c16be9ab8efe8878887604051612272939291909283526020830191909152604082015260600190565b60405180910390a45b50506001909401935061214992505050565b5050505b50505050565b60608267ffffffffffffffff8111156122b2576122b261424b565b60405190808252806020026020018201604052801561231d57816020015b61230a6040518060600160405280600073ffffffffffffffffffffffffffffffffffffffff16815260200160008152602001600081525090565b8152602001906001900390816122d05790505b50905060005b83811015610e905784848281811061233d5761233d614560565b90506020020160208101906123529190613f5f565b82828151811061236457612364614560565b602090810291909101015173ffffffffffffffffffffffffffffffffffffffff909116905284848281811061239b5761239b614560565b90506020020160208101906123b09190613f5f565b6040517f0afbcdc900000000000000000000000000000000000000000000000000000000815273ffffffffffffffffffffffffffffffffffffffff85811660048301529190911690630afbcdc9906024016040805180830381865afa15801561241d573d6000803e3d6000fd5b505050506040513d601f19601f8201168201806040525081019061244191906147c5565b83838151811061245357612453614560565b602002602001015160200184848151811061247057612470614560565b602090810291909101015160400191909152528061248d816145d6565b915050612323565b805173ffffffffffffffffffffffffffffffffffffffff90811660009081526001602081815260408084208786168552825280842086519095168452919052812060020154909190829061250190700100000000000000000000000000000000900460ff16600a614778565b9050600061251483866040015184612856565b60208088015173ffffffffffffffffffffffffffffffffffffffff8b166000908152600188019092526040909120549193506120d992509083906cffffffffffffffffffffffffff1685613d91565b60008173ffffffffffffffffffffffffffffffffffffffff166350d25bcd6040518163ffffffff1660e01b8152600401602060405180830381865afa1580156125b0573d6000803e3d6000fd5b505050506040513d601f19601f820116820180604052508101906125d4919061463f565b1361263b576040517f08c379a000000000000000000000000000000000000000000000000000000000815260206004820152601860248201527f4f5241434c455f4d5553545f52455455524e5f50524943450000000000000000604482015260640161074a565b73ffffffffffffffffffffffffffffffffffffffff8281166000818152603b602052604080822080547fffffffffffffffffffffffff0000000000000000000000000000000000000000169486169485179055517f1a1cd5483e52e60b9ff7f3b9d1db3bbd9e9d21c6324ad3a8c79dba9b75e62f4d9190a35050565b6000805b8251811015610e90578281815181106126d6576126d6614560565b60200260200101516020015160001415612785576001600084838151811061270057612700614560565b6020908102919091018101515173ffffffffffffffffffffffffffffffffffffffff908116835282820193909352604091820160009081208885168252825282812093891681526001909301905290205461277e906d010000000000000000000000000090046fffffffffffffffffffffffffffffffff16836145be565b9150612844565b6001600084838151811061279b5761279b614560565b6020908102919091018101515173ffffffffffffffffffffffffffffffffffffffff908116835282820193909352604091820160009081208885168252825282812093891681526001909301905290205483516d01000000000000000000000000009091046fffffffffffffffffffffffffffffffff169061282d9087908790879086908110610c1857610c18614560565b61283791906145be565b61284190836145be565b91505b8061284e816145d6565b9150506126bb565b825460009081906cffffffffffffffffffffffffff81169063ffffffff7c010000000000000000000000000000000000000000000000000000000082048116916affffffffffffffffffffff6d0100000000000000000000000000820416917801000000000000000000000000000000000000000000000000909104168115806128de575087155b806128e857504281145b806128f35750828110155b156129075783849550955050505050610c77565b60008342116129165742612918565b835b9050600061292683836147ae565b905060008961293583876147e9565b61293f91906147e9565b8b900490508661294f81836145be565b9850985050505050505050935093915050565b73ffffffffffffffffffffffffffffffffffffffff81166129df576040517f08c379a000000000000000000000000000000000000000000000000000000000815260206004820152601860248201527f53545241544547595f43414e5f4e4f545f42455f5a45524f0000000000000000604482015260640161074a565b6001813b151514612a4c576040517f08c379a000000000000000000000000000000000000000000000000000000000815260206004820152601960248201527f53545241544547595f4d5553545f42455f434f4e545241435400000000000000604482015260640161074a565b73ffffffffffffffffffffffffffffffffffffffff8281166000818152603a602052604080822080547fffffffffffffffffffffffff0000000000000000000000000000000000000000169486169485179055517f8ca1d928f1d72493a6b78c4f74aabde976bc37ffe2570f2a1ce5a8abd3dde0aa9190a35050565b60005b8151811015610d285760016000838381518110612aea57612aea614560565b6020908102919091018101516060015173ffffffffffffffffffffffffffffffffffffffff16825281019190915260400160002060020154700100000000000000000000000000000000900460ff16612bb6576004828281518110612b5157612b51614560565b6020908102919091018101516060015182546001810184556000938452919092200180547fffffffffffffffffffffffff00000000000000000000000000000000000000001673ffffffffffffffffffffffffffffffffffffffff9092169190911790555b6000828281518110612bca57612bca614560565b60200260200101516060015173ffffffffffffffffffffffffffffffffffffffff1663313ce5676040518163ffffffff1660e01b8152600401602060405180830381865afa158015612c20573d6000803e3d6000fd5b505050506040513d601f19601f82011682018060405250810190612c449190614826565b60016000858581518110612c5a57612c5a614560565b60200260200101516060015173ffffffffffffffffffffffffffffffffffffffff1673ffffffffffffffffffffffffffffffffffffffff16815260200190815260200160002060020160106101000a81548160ff021916908360ff160217905560ff169050600060016000858581518110612cd757612cd7614560565b60200260200101516060015173ffffffffffffffffffffffffffffffffffffffff1673ffffffffffffffffffffffffffffffffffffffff1681526020019081526020016000206000016000858581518110612d3457612d34614560565b6020908102919091018101516080015173ffffffffffffffffffffffffffffffffffffffff16825281019190915260400160002080549091507801000000000000000000000000000000000000000000000000900463ffffffff16612fa357838381518110612da557612da5614560565b60200260200101516080015160016000868681518110612dc757612dc7614560565b60200260200101516060015173ffffffffffffffffffffffffffffffffffffffff1673ffffffffffffffffffffffffffffffffffffffff168152602001908152602001600020600101600060016000888881518110612e2857612e28614560565b60200260200101516060015173ffffffffffffffffffffffffffffffffffffffff1673ffffffffffffffffffffffffffffffffffffffff16815260200190815260200160002060020160009054906101000a90046fffffffffffffffffffffffffffffffff166fffffffffffffffffffffffffffffffff166fffffffffffffffffffffffffffffffff16815260200190815260200160002060006101000a81548173ffffffffffffffffffffffffffffffffffffffff021916908373ffffffffffffffffffffffffffffffffffffffff16021790555060016000858581518110612f1457612f14614560565b6020908102919091018101516060015173ffffffffffffffffffffffffffffffffffffffff168252810191909152604001600090812060020180546fffffffffffffffffffffffffffffffff1691612f6b8361460f565b91906101000a8154816fffffffffffffffffffffffffffffffff02191690836fffffffffffffffffffffffffffffffff160217905550505b60026000858581518110612fb957612fb9614560565b6020908102919091018101516080015173ffffffffffffffffffffffffffffffffffffffff1682528101919091526040016000205460ff166130e35760016002600086868151811061300d5761300d614560565b60200260200101516080015173ffffffffffffffffffffffffffffffffffffffff1673ffffffffffffffffffffffffffffffffffffffff16815260200190815260200160002060006101000a81548160ff021916908315150217905550600384848151811061307e5761307e614560565b6020908102919091018101516080015182546001810184556000938452919092200180547fffffffffffffffffffffffff00000000000000000000000000000000000000001673ffffffffffffffffffffffffffffffffffffffff9092169190911790555b6000613114828686815181106130fb576130fb614560565b60200260200101516020015185600a611c9d9190614787565b50825486519192506d010000000000000000000000000081046affffffffffffffffffffff16917c010000000000000000000000000000000000000000000000000000000090910463ffffffff169087908790811061317557613175614560565b60209081029190910101515184546affffffffffffffffffffff9091166d0100000000000000000000000000027fffffffffffffffff0000000000000000000000ffffffffffffffffffffffffff90911617845586518790879081106131dd576131dd614560565b602090810291909101015160400151845463ffffffff9091167c0100000000000000000000000000000000000000000000000000000000027bffffffffffffffffffffffffffffffffffffffffffffffffffffffff909116178455865187908790811061324c5761324c614560565b60200260200101516080015173ffffffffffffffffffffffffffffffffffffffff1687878151811061328057613280614560565b60200260200101516060015173ffffffffffffffffffffffffffffffffffffffff167fac1777479f07f3e7c34da8402139d54027a6a260caaae168bdee825ca5580dc5848a8a815181106132d6576132d6614560565b602002602001015160000151858c8c815181106132f5576132f5614560565b602002602001015160400151896040516133499594939291906affffffffffffffffffffff958616815293909416602084015263ffffffff9182166040840152166060820152608081019190915260a00190565b60405180910390a350505050508080613361906145d6565b915050612acb565b60035460609081908067ffffffffffffffff81111561338a5761338a61424b565b6040519080825280602002602001820160405280156133b3578160200160208202803683370190505b5092508067ffffffffffffffff8111156133cf576133cf61424b565b6040519080825280602002602001820160405280156133f8578160200160208202803683370190505b50915061340a85611e738a8a89612297565b60005b8781101561371957600089898381811061342957613429614560565b905060200201602081019061343e9190613f5f565b905060005b8381101561370457600073ffffffffffffffffffffffffffffffffffffffff1686828151811061347557613475614560565b602002602001015173ffffffffffffffffffffffffffffffffffffffff16141561352457600381815481106134ac576134ac614560565b9060005260206000200160009054906101000a900473ffffffffffffffffffffffffffffffffffffffff168682815181106134e9576134e9614560565b602002602001019073ffffffffffffffffffffffffffffffffffffffff16908173ffffffffffffffffffffffffffffffffffffffff16815250505b73ffffffffffffffffffffffffffffffffffffffff821660009081526001602052604081208751829089908590811061355f5761355f614560565b60209081029190910181015173ffffffffffffffffffffffffffffffffffffffff90811683528282019390935260409182016000908120938d168152600190930190529020546d010000000000000000000000000090046fffffffffffffffffffffffffffffffff16905080156136f157808683815181106135e3576135e3614560565b602002602001018181516135f791906145be565b90525073ffffffffffffffffffffffffffffffffffffffff83166000908152600160205260408120885182908a908690811061363557613635614560565b602002602001015173ffffffffffffffffffffffffffffffffffffffff1673ffffffffffffffffffffffffffffffffffffffff16815260200190815260200160002060010160008b73ffffffffffffffffffffffffffffffffffffffff1673ffffffffffffffffffffffffffffffffffffffff168152602001908152602001600020600001600d6101000a8154816fffffffffffffffffffffffffffffffff02191690836fffffffffffffffffffffffffffffffff1602179055505b50806136fc816145d6565b915050613443565b50508080613711906145d6565b91505061340d565b5060005b81811015613845576137628585838151811061373b5761373b614560565b602002602001015185848151811061375557613755614560565b6020026020010151613b06565b8473ffffffffffffffffffffffffffffffffffffffff1684828151811061378b5761378b614560565b602002602001015173ffffffffffffffffffffffffffffffffffffffff168773ffffffffffffffffffffffffffffffffffffffff167fc052130bc4ef84580db505783484b067ea8b71b3bca78a7e12db7aea8658f0048a8786815181106137f4576137f4614560565b602002602001015160405161382b92919073ffffffffffffffffffffffffffffffffffffffff929092168252602082015260400190565b60405180910390a48061383d816145d6565b91505061371d565b50509550959350505050565b600080600080613862878787612856565b91509150600082821461397b576cffffffffffffffffffffffffff8211156138e6576040517f08c379a000000000000000000000000000000000000000000000000000000000815260206004820152600e60248201527f494e4445585f4f564552464c4f57000000000000000000000000000000000000604482015260640161074a565b5086547fffffffffffffffffffffffffffffffffffffff00000000000000000000000000166cffffffffffffffffffffffffff8216178755600161392942613db5565b885463ffffffff919091167801000000000000000000000000000000000000000000000000027fffffffff00000000ffffffffffffffffffffffffffffffffffffffffffffffff9091161788556139d2565b61398442613db5565b885463ffffffff919091167801000000000000000000000000000000000000000000000000027fffffffff00000000ffffffffffffffffffffffffffffffffffffffffffffffff9091161788555b9097909650945050505050565b60005b815181101561077857613a4e828281518110613a0057613a00614560565b60200260200101516000015184848481518110613a1f57613a1f614560565b602002602001015160200151858581518110613a3d57613a3d614560565b6020026020010151604001516120e4565b80613a58816145d6565b9150506139e2565b60006fffffffffffffffffffffffffffffffff821115613b02576040517f08c379a000000000000000000000000000000000000000000000000000000000815260206004820152602760248201527f53616665436173743a2076616c756520646f65736e27742066697420696e203160448201527f3238206269747300000000000000000000000000000000000000000000000000606482015260840161074a565b5090565b73ffffffffffffffffffffffffffffffffffffffff8281166000818152603a60205260408082205490517f16beb9820000000000000000000000000000000000000000000000000000000081528785166004820152602481019390935260448301859052909216919082906316beb982906064016020604051808303816000875af1158015613b99573d6000803e3d6000fd5b505050506040513d601f19601f82011682018060405250810190613bbd9190614849565b9050600181151514613c2b576040517f08c379a000000000000000000000000000000000000000000000000000000000815260206004820152600e60248201527f5452414e534645525f4552524f52000000000000000000000000000000000000604482015260640161074a565b5050505050565b73ffffffffffffffffffffffffffffffffffffffff8416600090815260018601602052604081205481906cffffffffffffffffffffffffff1681858214801590613d825773ffffffffffffffffffffffffffffffffffffffff8916600090815260018b016020526040902080547fffffffffffffffffffffffffffffffffffffff00000000000000000000000000166cffffffffffffffffffffffffff89161790558715613d8257613ce688888589613d91565b9150613cf182613a60565b73ffffffffffffffffffffffffffffffffffffffff8a16600090815260018c01602052604090208054600d90613d4b9084906d010000000000000000000000000090046fffffffffffffffffffffffffffffffff1661486b565b92506101000a8154816fffffffffffffffffffffffffffffffff02191690836fffffffffffffffffffffffffffffffff1602179055505b90999098509650505050505050565b600080613d9e84866147ae565b613da890876147e9565b9290920495945050505050565b600063ffffffff821115613b02576040517f08c379a000000000000000000000000000000000000000000000000000000000815260206004820152602660248201527f53616665436173743a2076616c756520646f65736e27742066697420696e203360448201527f3220626974730000000000000000000000000000000000000000000000000000606482015260840161074a565b73ffffffffffffffffffffffffffffffffffffffff811681146111bb57600080fd5b60008060408385031215613e8057600080fd5b8235613e8b81613e4b565b91506020830135613e9b81613e4b565b809150509250929050565b60008083601f840112613eb857600080fd5b50813567ffffffffffffffff811115613ed057600080fd5b6020830191508360208260051b8501011115610fb757600080fd5b600080600080600060808688031215613f0357600080fd5b853567ffffffffffffffff811115613f1a57600080fd5b613f2688828901613ea6565b909650945050602086013592506040860135613f4181613e4b565b91506060860135613f5181613e4b565b809150509295509295909350565b600060208284031215613f7157600080fd5b8135613f7c81613e4b565b9392505050565b600080600060608486031215613f9857600080fd5b8335613fa381613e4b565b95602085013595506040909401359392505050565b60008060008060008060a08789031215613fd157600080fd5b863567ffffffffffffffff811115613fe857600080fd5b613ff489828a01613ea6565b90975095505060208701359350604087013561400f81613e4b565b9250606087013561401f81613e4b565b9150608087013561402f81613e4b565b809150509295509295509295565b60008060006040848603121561405257600080fd5b833567ffffffffffffffff81111561406957600080fd5b61407586828701613ea6565b909450925050602084013561408981613e4b565b809150509250925092565b600081518084526020808501945080840160005b838110156140da57815173ffffffffffffffffffffffffffffffffffffffff16875295820195908201906001016140a8565b509495945050505050565b6040815260006140f86040830185614094565b82810360208481019190915284518083528582019282019060005b8181101561412f57845183529383019391830191600101614113565b5090979650505050505050565b60008060006060848603121561415157600080fd5b833561415c81613e4b565b9250602084013561416c81613e4b565b9150604084013561408981613e4b565b6000806000806060858703121561419257600080fd5b843567ffffffffffffffff8111156141a957600080fd5b6141b587828801613ea6565b9095509350506020850135915060408501356141d081613e4b565b939692955090935050565b602081526000613f7c6020830184614094565b6000806000806060858703121561420457600080fd5b843567ffffffffffffffff81111561421b57600080fd5b61422787828801613ea6565b909550935050602085013561423b81613e4b565b915060408501356141d081613e4b565b7f4e487b7100000000000000000000000000000000000000000000000000000000600052604160045260246000fd5b60405160e0810167ffffffffffffffff8111828210171561429d5761429d61424b565b60405290565b604051601f82017fffffffffffffffffffffffffffffffffffffffffffffffffffffffffffffffe016810167ffffffffffffffff811182821017156142ea576142ea61424b565b604052919050565b80356affffffffffffffffffffff8116811461430d57600080fd5b919050565b803563ffffffff8116811461430d57600080fd5b6000602080838503121561433957600080fd5b823567ffffffffffffffff8082111561435157600080fd5b818501915085601f83011261436557600080fd5b8135818111156143775761437761424b565b614385848260051b016142a3565b818152848101925060e09182028401850191888311156143a457600080fd5b938501935b828510156144485780858a0312156143c15760008081fd5b6143c961427a565b6143d2866142f2565b8152868601358782015260406143e9818801614312565b908201526060868101356143fc81613e4b565b9082015260808681013561440f81613e4b565b9082015260a08681013561442281613e4b565b9082015260c08681013561443581613e4b565b90820152845293840193928501926143a9565b50979650505050505050565b6000806020838503121561446757600080fd5b823567ffffffffffffffff81111561447e57600080fd5b61448a85828601613ea6565b90969095509350505050565b6000806000606084860312156144ab57600080fd5b83356144b681613e4b565b925060208401356144c681613e4b565b91506144d460408501614312565b90509250925092565b6000806000806000606086880312156144f557600080fd5b853561450081613e4b565b9450602086013567ffffffffffffffff8082111561451d57600080fd5b61452989838a01613ea6565b9096509450604088013591508082111561454257600080fd5b5061454f88828901613ea6565b969995985093965092949392505050565b7f4e487b7100000000000000000000000000000000000000000000000000000000600052603260045260246000fd5b7f4e487b7100000000000000000000000000000000000000000000000000000000600052601160045260246000fd5b600082198211156145d1576145d161458f565b500190565b60007fffffffffffffffffffffffffffffffffffffffffffffffffffffffffffffffff8214156146085761460861458f565b5060010190565b60006fffffffffffffffffffffffffffffffff808316818114156146355761463561458f565b6001019392505050565b60006020828403121561465157600080fd5b5051919050565b600181815b808511156146b157817fffffffffffffffffffffffffffffffffffffffffffffffffffffffffffffffff048211156146975761469761458f565b808516156146a457918102915b93841c939080029061465d565b509250929050565b6000826146c8575060016106c9565b816146d5575060006106c9565b81600181146146eb57600281146146f557614711565b60019150506106c9565b60ff8411156147065761470661458f565b50506001821b6106c9565b5060208310610133831016604e8410600b8410161715614734575081810a6106c9565b61473e8383614658565b807fffffffffffffffffffffffffffffffffffffffffffffffffffffffffffffffff048211156147705761477061458f565b029392505050565b6000613f7c60ff8416836146b9565b6000613f7c83836146b9565b6000602082840312156147a557600080fd5b613f7c826142f2565b6000828210156147c0576147c061458f565b500390565b600080604083850312156147d857600080fd5b505080516020909101519092909150565b6000817fffffffffffffffffffffffffffffffffffffffffffffffffffffffffffffffff04831182151516156148215761482161458f565b500290565b60006020828403121561483857600080fd5b815160ff81168114613f7c57600080fd5b60006020828403121561485b57600080fd5b81518015158114613f7c57600080fd5b60006fffffffffffffffffffffffffffffffff8083168185168083038211156148965761489661458f565b0194935050505056fea26469706673582212201ac7ad4d3f82f66037160f81d71386cc850d98f0011765721ef33f89a5d9495c64736f6c634300080a0033",
  "devdoc": {
    "author": "Aave*",
    "kind": "dev",
    "methods": {
      "claimAllRewards(address[],address)": {
        "details": "Claims all rewards for a user to the desired address, on all the assets of the pool, accumulating the pending rewards",
        "params": {
          "assets": "The list of assets to check eligible distributions before claiming rewards",
          "to": "The address that will be receiving the rewards"
        },
        "returns": {
          "claimedAmounts": "List that contains the claimed amount per reward, following same order as \"rewardList\"*",
          "rewardsList": "List of addresses of the reward tokens"
        }
      },
      "claimAllRewardsOnBehalf(address[],address,address)": {
        "details": "Claims all rewards for a user on behalf, on all the assets of the pool, accumulating the pending rewards. The caller must be whitelisted via \"allowClaimOnBehalf\" function by the RewardsAdmin role manager",
        "params": {
          "assets": "The list of assets to check eligible distributions before claiming rewards",
          "to": "The address that will be receiving the rewards",
          "user": "The address to check and claim rewards"
        },
        "returns": {
          "claimedAmounts": "List that contains the claimed amount per reward, following same order as \"rewardsList\"*",
          "rewardsList": "List of addresses of the reward tokens"
        }
      },
      "claimAllRewardsToSelf(address[])": {
        "details": "Claims all reward for msg.sender, on all the assets of the pool, accumulating the pending rewards",
        "params": {
          "assets": "The list of assets to check eligible distributions before claiming rewards"
        },
        "returns": {
          "claimedAmounts": "List that contains the claimed amount per reward, following same order as \"rewardsList\"*",
          "rewardsList": "List of addresses of the reward tokens"
        }
      },
      "claimRewards(address[],uint256,address,address)": {
        "details": "Claims reward for a user to the desired address, on all the assets of the pool, accumulating the pending rewards",
        "params": {
          "amount": "The amount of rewards to claim",
          "assets": "List of assets to check eligible distributions before claiming rewards",
          "reward": "The address of the reward token",
          "to": "The address that will be receiving the rewards"
        },
        "returns": {
          "_0": "The amount of rewards claimed*"
        }
      },
      "claimRewardsOnBehalf(address[],uint256,address,address,address)": {
        "details": "Claims reward for a user on behalf, on all the assets of the pool, accumulating the pending rewards. The caller must be whitelisted via \"allowClaimOnBehalf\" function by the RewardsAdmin role manager",
        "params": {
          "amount": "The amount of rewards to claim",
          "assets": "The list of assets to check eligible distributions before claiming rewards",
          "reward": "The address of the reward token",
          "to": "The address that will be receiving the rewards",
          "user": "The address to check and claim rewards"
        },
        "returns": {
          "_0": "The amount of rewards claimed*"
        }
      },
      "claimRewardsToSelf(address[],uint256,address)": {
        "details": "Claims reward for msg.sender, on all the assets of the pool, accumulating the pending rewards",
        "params": {
          "amount": "The amount of rewards to claim",
          "assets": "The list of assets to check eligible distributions before claiming rewards",
          "reward": "The address of the reward token"
        },
        "returns": {
          "_0": "The amount of rewards claimed*"
        }
      },
      "configureAssets((uint88,uint256,uint32,address,address,address,address)[])": {
        "details": "Configure assets to incentivize with an emission of rewards per second until the end of distribution.",
        "params": {
          "config": "The assets configuration input, the list of structs contains the following fields:   uint104 emissionPerSecond: The emission per second following rewards unit decimals.   uint256 totalSupply: The total supply of the asset to incentivize   uint40 distributionEnd: The end of the distribution of the incentives for an asset   address asset: The asset address to incentivize   address reward: The reward token address   ITransferStrategy transferStrategy: The TransferStrategy address with the install hook and claim logic.   IEACAggregatorProxy rewardOracle: The Price Oracle of a reward to visualize the incentives at the UI Frontend.                                     Must follow Chainlink Aggregator IEACAggregatorProxy interface to be compatible."
        }
      },
      "getAllUserRewards(address[],address)": {
        "details": "Returns a list all rewards of a user, including already accrued and unrealized claimable rewards",
        "params": {
          "assets": "List of incentivized assets to check eligible distributions",
          "user": "The address of the user"
        },
        "returns": {
          "rewardsList": "The list of reward addresses",
          "unclaimedAmounts": "The list of unclaimed amount of rewards*"
        }
      },
      "getAssetDecimals(address)": {
        "details": "Returns the decimals of an asset to calculate the distribution delta",
        "params": {
          "asset": "The address to retrieve decimals"
        },
        "returns": {
          "_0": "The decimals of an underlying asset"
        }
      },
      "getAssetIndex(address,address)": {
        "details": "Calculates the next value of an specific distribution index, with validations.",
        "params": {
          "asset": "The incentivized asset",
          "reward": "The reward token of the incentivized asset"
        },
        "returns": {
          "_0": "The old index of the asset distribution",
          "_1": "The new index of the asset distribution*"
        }
      },
      "getClaimer(address)": {
        "details": "Returns the whitelisted claimer for a certain address (0x0 if not set)",
        "params": {
          "user": "The address of the user"
        },
        "returns": {
          "_0": "The claimer address"
        }
      },
      "getDistributionEnd(address,address)": {
        "details": "Gets the end date for the distribution",
        "params": {
          "asset": "The incentivized asset",
          "reward": "The reward token of the incentivized asset"
        },
        "returns": {
          "_0": "The timestamp with the end of the distribution, in unix time format*"
        }
      },
      "getEmissionManager()": {
        "details": "Returns the address of the emission manager. Deprecated: This getter is maintained for compatibility purposes. Use the `EMISSION_MANAGER()` function instead.",
        "returns": {
          "_0": "The address of the EmissionManager"
        }
      },
      "getRewardOracle(address)": {
        "details": "Get the price aggregator oracle address",
        "params": {
          "reward": "The address of the reward"
        },
        "returns": {
          "_0": "The price oracle of the reward"
        }
      },
      "getRewardsByAsset(address)": {
        "details": "Returns the list of available reward token addresses of an incentivized asset",
        "params": {
          "asset": "The incentivized asset"
        },
        "returns": {
          "_0": "List of rewards addresses of the input asset*"
        }
      },
      "getRewardsData(address,address)": {
        "details": "Returns the configuration of the distribution reward for a certain asset",
        "params": {
          "asset": "The incentivized asset",
          "reward": "The reward token of the incentivized asset"
        },
        "returns": {
          "_0": "The index of the asset distribution",
          "_1": "The emission per second of the reward distribution",
          "_2": "The timestamp of the last update of the index",
          "_3": "The timestamp of the distribution end*"
        }
      },
      "getRewardsList()": {
        "details": "Returns the list of available reward addresses",
        "returns": {
          "_0": "List of rewards supported in this contract*"
        }
      },
      "getTransferStrategy(address)": {
        "details": "Returns the Transfer Strategy implementation contract address being used for a reward address",
        "params": {
          "reward": "The address of the reward"
        },
        "returns": {
          "_0": "The address of the TransferStrategy contract"
        }
      },
      "getUserAccruedRewards(address,address)": {
        "details": "Returns the accrued rewards balance of a user, not including virtually accrued rewards since last distribution.",
        "params": {
          "reward": "The address of the reward token",
          "user": "The address of the user"
        },
        "returns": {
          "_0": "Unclaimed rewards, not including new distributions*"
        }
      },
      "getUserAssetIndex(address,address,address)": {
        "details": "Returns the index of a user on a reward distribution",
        "params": {
          "asset": "The incentivized asset",
          "reward": "The reward token of the incentivized asset",
          "user": "Address of the user"
        },
        "returns": {
          "_0": "The current user asset index, not including new distributions*"
        }
      },
      "getUserRewards(address[],address,address)": {
        "details": "Returns a single rewards balance of a user, including virtually accrued and unrealized claimable rewards.",
        "params": {
          "assets": "List of incentivized assets to check eligible distributions",
          "reward": "The address of the reward token",
          "user": "The address of the user"
        },
        "returns": {
          "_0": "The rewards amount*"
        }
      },
      "handleAction(address,uint256,uint256)": {
        "details": "Called by the corresponding asset on transfer hook in order to update the rewards distribution.The units of `totalSupply` and `userBalance` should be the same.",
        "params": {
          "totalSupply": "The total supply of the asset prior to user balance change",
          "user": "The address of the user whose asset balance has changed",
          "userBalance": "The previous user balance prior to balance change*"
        }
      },
      "initialize(address)": {
        "details": "Initialize for RewardsControllerIt expects an address as argument since its initialized via PoolAddressesProvider._updateImpl()*"
      },
      "setClaimer(address,address)": {
        "details": "Whitelists an address to claim the rewards on behalf of another address",
        "params": {
          "claimer": "The address of the claimer",
          "user": "The address of the user"
        }
      },
      "setDistributionEnd(address,address,uint32)": {
        "details": "Sets the end date for the distribution",
        "params": {
          "asset": "The asset to incentivize",
          "newDistributionEnd": "The end date of the incentivization, in unix time format*",
          "reward": "The reward token that incentives the asset"
        }
      },
      "setEmissionPerSecond(address,address[],uint88[])": {
        "details": "Sets the emission per second of a set of reward distributions",
        "params": {
          "asset": "The asset is being incentivized",
          "newEmissionsPerSecond": "List of new reward emissions per second",
          "rewards": "List of reward addresses are being distributed"
        }
      },
      "setRewardOracle(address,address)": {
        "details": "Sets an Aave Oracle contract to enforce rewards with a source of value.",
        "params": {
          "reward": "The address of the reward to set the price aggregator",
          "rewardOracle": "The address of price aggregator that follows IEACAggregatorProxy interface"
        }
      },
      "setTransferStrategy(address,address)": {
        "details": "Sets a TransferStrategy logic contract that determines the logic of the rewards transfer",
        "params": {
          "reward": "The address of the reward token",
          "transferStrategy": "The address of the TransferStrategy logic contract"
        }
      }
    },
    "title": "RewardsController",
    "version": 1
  },
  "userdoc": {
    "kind": "user",
    "methods": {
      "setRewardOracle(address,address)": {
        "notice": "At the moment of reward configuration, the Incentives Controller performs a check to see if the reward asset oracle is compatible with IEACAggregator proxy. This check is enforced for integrators to be able to show incentives at the current Aave UI without the need to setup an external price registry"
      }
    },
    "notice": "Abstract contract template to build Distributors contracts for ERC20 rewards to protocol participants",
    "version": 1
  },
  "storageLayout": {
    "storage": [
      {
        "astId": 38342,
        "contract": "@aave/periphery-v3/contracts/rewards/RewardsController.sol:RewardsController",
        "label": "_emissionManager",
        "offset": 0,
        "slot": "0",
        "type": "t_address"
      },
      {
        "astId": 38347,
        "contract": "@aave/periphery-v3/contracts/rewards/RewardsController.sol:RewardsController",
        "label": "_assets",
        "offset": 0,
        "slot": "1",
        "type": "t_mapping(t_address,t_struct(AssetData)40448_storage)"
      },
      {
        "astId": 38351,
        "contract": "@aave/periphery-v3/contracts/rewards/RewardsController.sol:RewardsController",
        "label": "_isRewardEnabled",
        "offset": 0,
        "slot": "2",
        "type": "t_mapping(t_address,t_bool)"
      },
      {
        "astId": 38354,
        "contract": "@aave/periphery-v3/contracts/rewards/RewardsController.sol:RewardsController",
        "label": "_rewardsList",
        "offset": 0,
        "slot": "3",
        "type": "t_array(t_address)dyn_storage"
      },
      {
        "astId": 38357,
        "contract": "@aave/periphery-v3/contracts/rewards/RewardsController.sol:RewardsController",
        "label": "_assetsList",
        "offset": 0,
        "slot": "4",
        "type": "t_array(t_address)dyn_storage"
      },
      {
        "astId": 11182,
        "contract": "@aave/periphery-v3/contracts/rewards/RewardsController.sol:RewardsController",
        "label": "lastInitializedRevision",
        "offset": 0,
        "slot": "5",
        "type": "t_uint256"
      },
      {
        "astId": 11185,
        "contract": "@aave/periphery-v3/contracts/rewards/RewardsController.sol:RewardsController",
        "label": "initializing",
        "offset": 0,
        "slot": "6",
        "type": "t_bool"
      },
      {
        "astId": 11255,
        "contract": "@aave/periphery-v3/contracts/rewards/RewardsController.sol:RewardsController",
        "label": "______gap",
        "offset": 0,
        "slot": "7",
        "type": "t_array(t_uint256)50_storage"
      },
      {
        "astId": 37326,
        "contract": "@aave/periphery-v3/contracts/rewards/RewardsController.sol:RewardsController",
        "label": "_authorizedClaimers",
        "offset": 0,
        "slot": "57",
        "type": "t_mapping(t_address,t_address)"
      },
      {
        "astId": 37331,
        "contract": "@aave/periphery-v3/contracts/rewards/RewardsController.sol:RewardsController",
        "label": "_transferStrategy",
        "offset": 0,
        "slot": "58",
        "type": "t_mapping(t_address,t_contract(ITransferStrategyBase)40385)"
      },
      {
        "astId": 37336,
        "contract": "@aave/periphery-v3/contracts/rewards/RewardsController.sol:RewardsController",
        "label": "_rewardOracle",
        "offset": 0,
        "slot": "59",
        "type": "t_mapping(t_address,t_contract(IEACAggregatorProxy)35825)"
      }
    ],
    "types": {
      "t_address": {
        "encoding": "inplace",
        "label": "address",
        "numberOfBytes": "20"
      },
      "t_array(t_address)dyn_storage": {
        "base": "t_address",
        "encoding": "dynamic_array",
        "label": "address[]",
        "numberOfBytes": "32"
      },
      "t_array(t_uint256)50_storage": {
        "base": "t_uint256",
        "encoding": "inplace",
        "label": "uint256[50]",
        "numberOfBytes": "1600"
      },
      "t_bool": {
        "encoding": "inplace",
        "label": "bool",
        "numberOfBytes": "1"
      },
      "t_contract(IEACAggregatorProxy)35825": {
        "encoding": "inplace",
        "label": "contract IEACAggregatorProxy",
        "numberOfBytes": "20"
      },
      "t_contract(ITransferStrategyBase)40385": {
        "encoding": "inplace",
        "label": "contract ITransferStrategyBase",
        "numberOfBytes": "20"
      },
      "t_mapping(t_address,t_address)": {
        "encoding": "mapping",
        "key": "t_address",
        "label": "mapping(address => address)",
        "numberOfBytes": "32",
        "value": "t_address"
      },
      "t_mapping(t_address,t_bool)": {
        "encoding": "mapping",
        "key": "t_address",
        "label": "mapping(address => bool)",
        "numberOfBytes": "32",
        "value": "t_bool"
      },
      "t_mapping(t_address,t_contract(IEACAggregatorProxy)35825)": {
        "encoding": "mapping",
        "key": "t_address",
        "label": "mapping(address => contract IEACAggregatorProxy)",
        "numberOfBytes": "32",
        "value": "t_contract(IEACAggregatorProxy)35825"
      },
      "t_mapping(t_address,t_contract(ITransferStrategyBase)40385)": {
        "encoding": "mapping",
        "key": "t_address",
        "label": "mapping(address => contract ITransferStrategyBase)",
        "numberOfBytes": "32",
        "value": "t_contract(ITransferStrategyBase)40385"
      },
      "t_mapping(t_address,t_struct(AssetData)40448_storage)": {
        "encoding": "mapping",
        "key": "t_address",
        "label": "mapping(address => struct RewardsDataTypes.AssetData)",
        "numberOfBytes": "32",
        "value": "t_struct(AssetData)40448_storage"
      },
      "t_mapping(t_address,t_struct(RewardData)40434_storage)": {
        "encoding": "mapping",
        "key": "t_address",
        "label": "mapping(address => struct RewardsDataTypes.RewardData)",
        "numberOfBytes": "32",
        "value": "t_struct(RewardData)40434_storage"
      },
      "t_mapping(t_address,t_struct(UserData)40420_storage)": {
        "encoding": "mapping",
        "key": "t_address",
        "label": "mapping(address => struct RewardsDataTypes.UserData)",
        "numberOfBytes": "32",
        "value": "t_struct(UserData)40420_storage"
      },
      "t_mapping(t_uint128,t_address)": {
        "encoding": "mapping",
        "key": "t_uint128",
        "label": "mapping(uint128 => address)",
        "numberOfBytes": "32",
        "value": "t_address"
      },
      "t_struct(AssetData)40448_storage": {
        "encoding": "inplace",
        "label": "struct RewardsDataTypes.AssetData",
        "members": [
          {
            "astId": 40439,
            "contract": "@aave/periphery-v3/contracts/rewards/RewardsController.sol:RewardsController",
            "label": "rewards",
            "offset": 0,
            "slot": "0",
            "type": "t_mapping(t_address,t_struct(RewardData)40434_storage)"
          },
          {
            "astId": 40443,
            "contract": "@aave/periphery-v3/contracts/rewards/RewardsController.sol:RewardsController",
            "label": "availableRewards",
            "offset": 0,
            "slot": "1",
            "type": "t_mapping(t_uint128,t_address)"
          },
          {
            "astId": 40445,
            "contract": "@aave/periphery-v3/contracts/rewards/RewardsController.sol:RewardsController",
            "label": "availableRewardsCount",
            "offset": 0,
            "slot": "2",
            "type": "t_uint128"
          },
          {
            "astId": 40447,
            "contract": "@aave/periphery-v3/contracts/rewards/RewardsController.sol:RewardsController",
            "label": "decimals",
            "offset": 16,
            "slot": "2",
            "type": "t_uint8"
          }
        ],
        "numberOfBytes": "96"
      },
      "t_struct(RewardData)40434_storage": {
        "encoding": "inplace",
        "label": "struct RewardsDataTypes.RewardData",
        "members": [
          {
            "astId": 40422,
            "contract": "@aave/periphery-v3/contracts/rewards/RewardsController.sol:RewardsController",
            "label": "index",
            "offset": 0,
            "slot": "0",
            "type": "t_uint104"
          },
          {
            "astId": 40424,
            "contract": "@aave/periphery-v3/contracts/rewards/RewardsController.sol:RewardsController",
            "label": "emissionPerSecond",
            "offset": 13,
            "slot": "0",
            "type": "t_uint88"
          },
          {
            "astId": 40426,
            "contract": "@aave/periphery-v3/contracts/rewards/RewardsController.sol:RewardsController",
            "label": "lastUpdateTimestamp",
            "offset": 24,
            "slot": "0",
            "type": "t_uint32"
          },
          {
            "astId": 40428,
            "contract": "@aave/periphery-v3/contracts/rewards/RewardsController.sol:RewardsController",
            "label": "distributionEnd",
            "offset": 28,
            "slot": "0",
            "type": "t_uint32"
          },
          {
            "astId": 40433,
            "contract": "@aave/periphery-v3/contracts/rewards/RewardsController.sol:RewardsController",
            "label": "usersData",
            "offset": 0,
            "slot": "1",
            "type": "t_mapping(t_address,t_struct(UserData)40420_storage)"
          }
        ],
        "numberOfBytes": "64"
      },
      "t_struct(UserData)40420_storage": {
        "encoding": "inplace",
        "label": "struct RewardsDataTypes.UserData",
        "members": [
          {
            "astId": 40417,
            "contract": "@aave/periphery-v3/contracts/rewards/RewardsController.sol:RewardsController",
            "label": "index",
            "offset": 0,
            "slot": "0",
            "type": "t_uint104"
          },
          {
            "astId": 40419,
            "contract": "@aave/periphery-v3/contracts/rewards/RewardsController.sol:RewardsController",
            "label": "accrued",
            "offset": 13,
            "slot": "0",
            "type": "t_uint128"
          }
        ],
        "numberOfBytes": "32"
      },
      "t_uint104": {
        "encoding": "inplace",
        "label": "uint104",
        "numberOfBytes": "13"
      },
      "t_uint128": {
        "encoding": "inplace",
        "label": "uint128",
        "numberOfBytes": "16"
      },
      "t_uint256": {
        "encoding": "inplace",
        "label": "uint256",
        "numberOfBytes": "32"
      },
      "t_uint32": {
        "encoding": "inplace",
        "label": "uint32",
        "numberOfBytes": "4"
      },
      "t_uint8": {
        "encoding": "inplace",
        "label": "uint8",
        "numberOfBytes": "1"
      },
      "t_uint88": {
        "encoding": "inplace",
        "label": "uint88",
        "numberOfBytes": "11"
      }
    }
  }
}