{
  "address": "0x3f865aDd04D1F46f00F6ca57F7296b268Fc0520d",
  "abi": [
    {
      "inputs": [
        {
          "internalType": "contract IPool",
          "name": "pool",
          "type": "address"
        }
      ],
      "stateMutability": "nonpayable",
      "type": "constructor"
    },
    {
      "inputs": [],
      "name": "POOL",
      "outputs": [
        {
          "internalType": "contract IPool",
          "name": "",
          "type": "address"
        }
      ],
      "stateMutability": "view",
      "type": "function"
    },
    {
      "inputs": [
        {
          "internalType": "address",
          "name": "asset",
          "type": "address"
        },
        {
          "internalType": "uint256",
          "name": "amount",
          "type": "uint256"
        },
        {
          "internalType": "uint256",
          "name": "interestRateMode",
          "type": "uint256"
        },
        {
          "internalType": "uint16",
          "name": "referralCode",
          "type": "uint16"
        }
      ],
      "name": "encodeBorrowParams",
      "outputs": [
        {
          "internalType": "bytes32",
          "name": "",
          "type": "bytes32"
        }
      ],
      "stateMutability": "view",
      "type": "function"
    },
    {
      "inputs": [
        {
          "internalType": "address",
          "name": "collateralAsset",
          "type": "address"
        },
        {
          "internalType": "address",
          "name": "debtAsset",
          "type": "address"
        },
        {
          "internalType": "address",
          "name": "user",
          "type": "address"
        },
        {
          "internalType": "uint256",
          "name": "debtToCover",
          "type": "uint256"
        },
        {
          "internalType": "bool",
          "name": "receiveAToken",
          "type": "bool"
        }
      ],
      "name": "encodeLiquidationCall",
      "outputs": [
        {
          "internalType": "bytes32",
          "name": "",
          "type": "bytes32"
        },
        {
          "internalType": "bytes32",
          "name": "",
          "type": "bytes32"
        }
      ],
      "stateMutability": "view",
      "type": "function"
    },
    {
      "inputs": [
        {
          "internalType": "address",
          "name": "asset",
          "type": "address"
        },
        {
          "internalType": "address",
          "name": "user",
          "type": "address"
        }
      ],
      "name": "encodeRebalanceStableBorrowRate",
      "outputs": [
        {
          "internalType": "bytes32",
          "name": "",
          "type": "bytes32"
        }
      ],
      "stateMutability": "view",
      "type": "function"
    },
    {
      "inputs": [
        {
          "internalType": "address",
          "name": "asset",
          "type": "address"
        },
        {
          "internalType": "uint256",
          "name": "amount",
          "type": "uint256"
        },
        {
          "internalType": "uint256",
          "name": "interestRateMode",
          "type": "uint256"
        }
      ],
      "name": "encodeRepayParams",
      "outputs": [
        {
          "internalType": "bytes32",
          "name": "",
          "type": "bytes32"
        }
      ],
      "stateMutability": "view",
      "type": "function"
    },
    {
      "inputs": [
        {
          "internalType": "address",
          "name": "asset",
          "type": "address"
        },
        {
          "internalType": "uint256",
          "name": "amount",
          "type": "uint256"
        },
        {
          "internalType": "uint256",
          "name": "interestRateMode",
          "type": "uint256"
        }
      ],
      "name": "encodeRepayWithATokensParams",
      "outputs": [
        {
          "internalType": "bytes32",
          "name": "",
          "type": "bytes32"
        }
      ],
      "stateMutability": "view",
      "type": "function"
    },
    {
      "inputs": [
        {
          "internalType": "address",
          "name": "asset",
          "type": "address"
        },
        {
          "internalType": "uint256",
          "name": "amount",
          "type": "uint256"
        },
        {
          "internalType": "uint256",
          "name": "interestRateMode",
          "type": "uint256"
        },
        {
          "internalType": "uint256",
          "name": "deadline",
          "type": "uint256"
        },
        {
          "internalType": "uint8",
          "name": "permitV",
          "type": "uint8"
        },
        {
          "internalType": "bytes32",
          "name": "permitR",
          "type": "bytes32"
        },
        {
          "internalType": "bytes32",
          "name": "permitS",
          "type": "bytes32"
        }
      ],
      "name": "encodeRepayWithPermitParams",
      "outputs": [
        {
          "internalType": "bytes32",
          "name": "",
          "type": "bytes32"
        },
        {
          "internalType": "bytes32",
          "name": "",
          "type": "bytes32"
        },
        {
          "internalType": "bytes32",
          "name": "",
          "type": "bytes32"
        }
      ],
      "stateMutability": "view",
      "type": "function"
    },
    {
      "inputs": [
        {
          "internalType": "address",
          "name": "asset",
          "type": "address"
        },
        {
          "internalType": "bool",
          "name": "useAsCollateral",
          "type": "bool"
        }
      ],
      "name": "encodeSetUserUseReserveAsCollateral",
      "outputs": [
        {
          "internalType": "bytes32",
          "name": "",
          "type": "bytes32"
        }
      ],
      "stateMutability": "view",
      "type": "function"
    },
    {
      "inputs": [
        {
          "internalType": "address",
          "name": "asset",
          "type": "address"
        },
        {
          "internalType": "uint256",
          "name": "amount",
          "type": "uint256"
        },
        {
          "internalType": "uint16",
          "name": "referralCode",
          "type": "uint16"
        }
      ],
      "name": "encodeSupplyParams",
      "outputs": [
        {
          "internalType": "bytes32",
          "name": "",
          "type": "bytes32"
        }
      ],
      "stateMutability": "view",
      "type": "function"
    },
    {
      "inputs": [
        {
          "internalType": "address",
          "name": "asset",
          "type": "address"
        },
        {
          "internalType": "uint256",
          "name": "amount",
          "type": "uint256"
        },
        {
          "internalType": "uint16",
          "name": "referralCode",
          "type": "uint16"
        },
        {
          "internalType": "uint256",
          "name": "deadline",
          "type": "uint256"
        },
        {
          "internalType": "uint8",
          "name": "permitV",
          "type": "uint8"
        },
        {
          "internalType": "bytes32",
          "name": "permitR",
          "type": "bytes32"
        },
        {
          "internalType": "bytes32",
          "name": "permitS",
          "type": "bytes32"
        }
      ],
      "name": "encodeSupplyWithPermitParams",
      "outputs": [
        {
          "internalType": "bytes32",
          "name": "",
          "type": "bytes32"
        },
        {
          "internalType": "bytes32",
          "name": "",
          "type": "bytes32"
        },
        {
          "internalType": "bytes32",
          "name": "",
          "type": "bytes32"
        }
      ],
      "stateMutability": "view",
      "type": "function"
    },
    {
      "inputs": [
        {
          "internalType": "address",
          "name": "asset",
          "type": "address"
        },
        {
          "internalType": "uint256",
          "name": "interestRateMode",
          "type": "uint256"
        }
      ],
      "name": "encodeSwapBorrowRateMode",
      "outputs": [
        {
          "internalType": "bytes32",
          "name": "",
          "type": "bytes32"
        }
      ],
      "stateMutability": "view",
      "type": "function"
    },
    {
      "inputs": [
        {
          "internalType": "address",
          "name": "asset",
          "type": "address"
        },
        {
          "internalType": "uint256",
          "name": "amount",
          "type": "uint256"
        }
      ],
      "name": "encodeWithdrawParams",
      "outputs": [
        {
          "internalType": "bytes32",
          "name": "",
          "type": "bytes32"
        }
      ],
      "stateMutability": "view",
      "type": "function"
    }
  ],
  "transactionHash": "0xb9ec1f179c0a9fd2f675b416ad1bb61d627e2b3fb92b10f8c8dd5a6e12c4b389",
  "args": [
    "0xCe92854CF46251190652848572f10ea2EcFB960e"
  ],
  "numDeployments": 1,
  "solcInputHash": "064a3948b0a7f15e784edb20aa805bc2",
  "bytecode": "0x60a060405234801561001057600080fd5b5060405161143138038061143183398101604081905261002f91610040565b6001600160a01b0316608052610070565b60006020828403121561005257600080fd5b81516001600160a01b038116811461006957600080fd5b9392505050565b6080516113606100d16000396000818161016b0152818161027e015281816103760152818161043f015281816105180152818161062e0152818161073c015281816107fc0152818161094101528181610a700152610b5501526113606000f3fe608060405234801561001057600080fd5b50600436106100d45760003560e01c806388d5185211610081578063b76398e41161005b578063b76398e414610200578063fc0eed8514610213578063fed63a931461022157600080fd5b806388d51852146101b25780638da7fb18146101da5780639d2ffc1b146101ed57600080fd5b80635cc7bc10116100b25780635cc7bc1014610125578063671a7fae146101385780637535d2461461016657600080fd5b80631a64acf2146100d95780631a8f6dee146100ff5780631fd3479714610112575b600080fd5b6100ec6100e7366004610e66565b610234565b6040519081526020015b60405180910390f35b6100ec61010d366004610eb0565b61032c565b6100ec610120366004610ee9565b6103f5565b6100ec610133366004610ee9565b6104ce565b61014b610146366004610f2b565b6105e0565b604080519384526020840192909252908201526060016100f6565b61018d7f000000000000000000000000000000000000000000000000000000000000000081565b60405173ffffffffffffffffffffffffffffffffffffffff90911681526020016100f6565b6101c56101c0366004610fa9565b6106f0565b604080519283526020830191909152016100f6565b6100ec6101e836600461100d565b6108e2565b6100ec6101fb36600461100d565b6108f7565b6100ec61020e366004611042565b610a26565b6100ec61010d366004611084565b61014b61022f3660046110b9565b610b07565b6040517f35ea6a7500000000000000000000000000000000000000000000000000000000815273ffffffffffffffffffffffffffffffffffffffff858116600483015260009182917f000000000000000000000000000000000000000000000000000000000000000016906335ea6a75906024016101e060405180830381865afa1580156102c6573d6000803e3d6000fd5b505050506040513d601f19601f820116820180604052508101906102ea9190611207565b60e081015190915060006102fd87610c5d565b9050600061030a87610d08565b60109290921b60909290921b60989690961b9590950101019695505050505050565b6040517f35ea6a7500000000000000000000000000000000000000000000000000000000815273ffffffffffffffffffffffffffffffffffffffff838116600483015260009182917f000000000000000000000000000000000000000000000000000000000000000016906335ea6a75906024016101e060405180830381865afa1580156103be573d6000803e3d6000fd5b505050506040513d601f19601f820116820180604052508101906103e29190611207565b60e00151601084901b0191505092915050565b6040517f35ea6a7500000000000000000000000000000000000000000000000000000000815273ffffffffffffffffffffffffffffffffffffffff838116600483015260009182917f000000000000000000000000000000000000000000000000000000000000000016906335ea6a75906024016101e060405180830381865afa158015610487573d6000803e3d6000fd5b505050506040513d601f19601f820116820180604052508101906104ab9190611207565b60e081015190915060006104be85610d08565b60101b9190910195945050505050565b6040517f35ea6a7500000000000000000000000000000000000000000000000000000000815273ffffffffffffffffffffffffffffffffffffffff838116600483015260009182917f000000000000000000000000000000000000000000000000000000000000000016906335ea6a75906024016101e060405180830381865afa158015610560573d6000803e3d6000fd5b505050506040513d601f19601f820116820180604052508101906105849190611207565b60e081015190915060007fffffffffffffffffffffffffffffffffffffffffffffffffffffffffffffffff85146105c3576105be85610c5d565b6104be565b5071ffffffffffffffffffffffffffffffff000001949350505050565b6040517f35ea6a7500000000000000000000000000000000000000000000000000000000815273ffffffffffffffffffffffffffffffffffffffff88811660048301526000918291829182917f000000000000000000000000000000000000000000000000000000000000000016906335ea6a75906024016101e060405180830381865afa158015610676573d6000803e3d6000fd5b505050506040513d601f19601f8201168201806040525081019061069a9190611207565b60e081015190915060006106ad8c610c5d565b905060006106ba8b610d9b565b905060008a60c01b8260a01b018d60901b018360101b0184019050808a8a97509750975050505050509750975097945050505050565b6040517f35ea6a7500000000000000000000000000000000000000000000000000000000815273ffffffffffffffffffffffffffffffffffffffff8681166004830152600091829182917f0000000000000000000000000000000000000000000000000000000000000000909116906335ea6a75906024016101e060405180830381865afa158015610786573d6000803e3d6000fd5b505050506040513d601f19601f820116820180604052508101906107aa9190611207565b60e08101516040517f35ea6a7500000000000000000000000000000000000000000000000000000000815273ffffffffffffffffffffffffffffffffffffffff8a8116600483015292935090916000917f0000000000000000000000000000000000000000000000000000000000000000909116906335ea6a75906024016101e060405180830381865afa158015610846573d6000803e3d6000fd5b505050506040513d601f19601f8201168201806040525081019061086a9190611207565b60e081015190915060007fffffffffffffffffffffffffffffffffffffffffffffffffffffffffffffffff89146108a9576108a489610c5d565b6108bb565b6fffffffffffffffffffffffffffffffff5b60109290921b9390930160208a901b019550608087901b0193505050509550959350505050565b60006108ef8484846108f7565b949350505050565b6040517f35ea6a7500000000000000000000000000000000000000000000000000000000815273ffffffffffffffffffffffffffffffffffffffff848116600483015260009182917f000000000000000000000000000000000000000000000000000000000000000016906335ea6a75906024016101e060405180830381865afa158015610989573d6000803e3d6000fd5b505050506040513d601f19601f820116820180604052508101906109ad9190611207565b60e081015190915060007fffffffffffffffffffffffffffffffffffffffffffffffffffffffffffffffff86146109ec576109e786610c5d565b6109fe565b6fffffffffffffffffffffffffffffffff5b90506000610a0b86610d08565b60901b60109290921b91909101919091019695505050505050565b6040517f35ea6a7500000000000000000000000000000000000000000000000000000000815273ffffffffffffffffffffffffffffffffffffffff848116600483015260009182917f000000000000000000000000000000000000000000000000000000000000000016906335ea6a75906024016101e060405180830381865afa158015610ab8573d6000803e3d6000fd5b505050506040513d601f19601f82011682018060405250810190610adc9190611207565b60e08101519091506000610aef86610c5d565b60101b609086901b0191909101925050509392505050565b6040517f35ea6a7500000000000000000000000000000000000000000000000000000000815273ffffffffffffffffffffffffffffffffffffffff88811660048301526000918291829182917f000000000000000000000000000000000000000000000000000000000000000016906335ea6a75906024016101e060405180830381865afa158015610b9d573d6000803e3d6000fd5b505050506040513d601f19601f82011682018060405250810190610bc19190611207565b60e081015190915060007fffffffffffffffffffffffffffffffffffffffffffffffffffffffffffffffff8c14610c0057610bfb8c610c5d565b610c12565b6fffffffffffffffffffffffffffffffff5b90506000610c1f8c610d08565b90506000610c2c8c610d9b565b60b89b909b1b60989b909b1b9a909a0160909190911b0160109190911b01019b959a50939850939650505050505050565b60006fffffffffffffffffffffffffffffffff821115610d04576040517f08c379a000000000000000000000000000000000000000000000000000000000815260206004820152602760248201527f53616665436173743a2076616c756520646f65736e27742066697420696e203160448201527f323820626974730000000000000000000000000000000000000000000000000060648201526084015b60405180910390fd5b5090565b600060ff821115610d04576040517f08c379a000000000000000000000000000000000000000000000000000000000815260206004820152602560248201527f53616665436173743a2076616c756520646f65736e27742066697420696e203860448201527f20626974730000000000000000000000000000000000000000000000000000006064820152608401610cfb565b600063ffffffff821115610d04576040517f08c379a000000000000000000000000000000000000000000000000000000000815260206004820152602660248201527f53616665436173743a2076616c756520646f65736e27742066697420696e203360448201527f32206269747300000000000000000000000000000000000000000000000000006064820152608401610cfb565b73ffffffffffffffffffffffffffffffffffffffff81168114610e5357600080fd5b50565b61ffff81168114610e5357600080fd5b60008060008060808587031215610e7c57600080fd5b8435610e8781610e31565b935060208501359250604085013591506060850135610ea581610e56565b939692955090935050565b60008060408385031215610ec357600080fd5b8235610ece81610e31565b91506020830135610ede81610e31565b809150509250929050565b60008060408385031215610efc57600080fd5b8235610f0781610e31565b946020939093013593505050565b803560ff81168114610f2657600080fd5b919050565b600080600080600080600060e0888a031215610f4657600080fd5b8735610f5181610e31565b9650602088013595506040880135610f6881610e56565b945060608801359350610f7d60808901610f15565b925060a0880135915060c0880135905092959891949750929550565b80358015158114610f2657600080fd5b600080600080600060a08688031215610fc157600080fd5b8535610fcc81610e31565b94506020860135610fdc81610e31565b93506040860135610fec81610e31565b92506060860135915061100160808701610f99565b90509295509295909350565b60008060006060848603121561102257600080fd5b833561102d81610e31565b95602085013595506040909401359392505050565b60008060006060848603121561105757600080fd5b833561106281610e31565b925060208401359150604084013561107981610e56565b809150509250925092565b6000806040838503121561109757600080fd5b82356110a281610e31565b91506110b060208401610f99565b90509250929050565b600080600080600080600060e0888a0312156110d457600080fd5b87356110df81610e31565b9650602088013595506040880135945060608801359350610f7d60808901610f15565b6040516101e0810167ffffffffffffffff8111828210171561114d577f4e487b7100000000000000000000000000000000000000000000000000000000600052604160045260246000fd5b60405290565b60006020828403121561116557600080fd5b6040516020810181811067ffffffffffffffff821117156111af577f4e487b7100000000000000000000000000000000000000000000000000000000600052604160045260246000fd5b6040529151825250919050565b80516fffffffffffffffffffffffffffffffff81168114610f2657600080fd5b805164ffffffffff81168114610f2657600080fd5b8051610f2681610e56565b8051610f2681610e31565b60006101e0828403121561121a57600080fd5b611222611102565b61122c8484611153565b815261123a602084016111bc565b602082015261124b604084016111bc565b604082015261125c606084016111bc565b606082015261126d608084016111bc565b608082015261127e60a084016111bc565b60a082015261128f60c084016111dc565b60c08201526112a060e084016111f1565b60e08201526101006112b38185016111fc565b908201526101206112c58482016111fc565b908201526101406112d78482016111fc565b908201526101606112e98482016111fc565b908201526101806112fb8482016111bc565b908201526101a061130d8482016111bc565b908201526101c061131f8482016111bc565b90820152939250505056fea2646970667358221220d6858eedac0c54db319d3949c5399af0334cbf1ef51d7d35072aa3bc9579e09d64736f6c634300080a0033",
  "devdoc": {
    "author": "Aave",
    "kind": "dev",
    "methods": {
      "constructor": {
        "details": "Constructor.",
        "params": {
          "pool": "The address of the Pool contract"
        }
      },
      "encodeBorrowParams(address,uint256,uint256,uint16)": {
        "details": "Without an onBehalfOf parameter as the compact calls to L2Pool will use msg.sender as onBehalfOf",
        "params": {
          "amount": "The amount to be borrowed",
          "asset": "The address of the underlying asset to borrow",
          "interestRateMode": "The interest rate mode at which the user wants to borrow: 1 for Stable, 2 for Variable",
          "referralCode": "The code used to register the integrator originating the operation, for potential rewards.   0 if the action is executed directly by the user, without any middle-man"
        },
        "returns": {
          "_0": "compact representation of withdraw parameters"
        }
      },
      "encodeLiquidationCall(address,address,address,uint256,bool)": {
        "params": {
          "collateralAsset": "The address of the underlying asset used as collateral, to receive as result of the liquidation",
          "debtAsset": "The address of the underlying borrowed asset to be repaid with the liquidation",
          "debtToCover": "The debt amount of borrowed `asset` the liquidator wants to cover",
          "receiveAToken": "True if the liquidators wants to receive the collateral aTokens, `false` if he wants to receive the underlying collateral asset directly",
          "user": "The address of the borrower getting liquidated"
        },
        "returns": {
          "_0": "First half ot compact representation of liquidation call parameters",
          "_1": "Second half ot compact representation of liquidation call parameters"
        }
      },
      "encodeRebalanceStableBorrowRate(address,address)": {
        "params": {
          "asset": "The address of the underlying asset borrowed",
          "user": "The address of the user to be rebalanced"
        },
        "returns": {
          "_0": "compact representation of rebalance stable borrow rate parameters"
        }
      },
      "encodeRepayParams(address,uint256,uint256)": {
        "details": "Without an onBehalfOf parameter as the compact calls to L2Pool will use msg.sender as onBehalfOf",
        "params": {
          "amount": "The amount to repay - Send the value type(uint256).max in order to repay the whole debt for `asset` on the specific `interestRateMode`",
          "asset": "The address of the borrowed underlying asset previously borrowed",
          "interestRateMode": "The interest rate mode at of the debt the user wants to repay: 1 for Stable, 2 for Variable"
        },
        "returns": {
          "_0": "compact representation of repay parameters"
        }
      },
      "encodeRepayWithATokensParams(address,uint256,uint256)": {
        "params": {
          "amount": "The amount to repay - Send the value type(uint256).max in order to repay the whole debt for `asset` on the specific `debtMode`",
          "asset": "The address of the borrowed underlying asset previously borrowed",
          "interestRateMode": "The interest rate mode at of the debt the user wants to repay: 1 for Stable, 2 for Variable"
        },
        "returns": {
          "_0": "compact representation of repay with aToken parameters"
        }
      },
      "encodeRepayWithPermitParams(address,uint256,uint256,uint256,uint8,bytes32,bytes32)": {
        "details": "Without an onBehalfOf parameter as the compact calls to L2Pool will use msg.sender as onBehalfOf",
        "params": {
          "amount": "The amount to repay - Send the value type(uint256).max in order to repay the whole debt for `asset` on the specific `debtMode`",
          "asset": "The address of the borrowed underlying asset previously borrowed",
          "deadline": "The deadline timestamp that the permit is valid",
          "interestRateMode": "The interest rate mode at of the debt the user wants to repay: 1 for Stable, 2 for Variable",
          "permitR": "The R parameter of ERC712 permit sig",
          "permitS": "The S parameter of ERC712 permit sig",
          "permitV": "The V parameter of ERC712 permit sig"
        },
        "returns": {
          "_0": "compact representation of repayWithPermit parameters",
          "_1": "The R parameter of ERC712 permit sig",
          "_2": "The S parameter of ERC712 permit sig"
        }
      },
      "encodeSetUserUseReserveAsCollateral(address,bool)": {
        "params": {
          "asset": "The address of the underlying asset borrowed",
          "useAsCollateral": "True if the user wants to use the supply as collateral, false otherwise"
        },
        "returns": {
          "_0": "compact representation of set user use reserve as collateral parameters"
        }
      },
      "encodeSupplyParams(address,uint256,uint16)": {
        "details": "Without an onBehalfOf parameter as the compact calls to L2Pool will use msg.sender as onBehalfOf",
        "params": {
          "amount": "The amount to be supplied",
          "asset": "The address of the underlying asset to supply",
          "referralCode": "referralCode Code used to register the integrator originating the operation, for potential rewards.   0 if the action is executed directly by the user, without any middle-man"
        },
        "returns": {
          "_0": "compact representation of supply parameters"
        }
      },
      "encodeSupplyWithPermitParams(address,uint256,uint16,uint256,uint8,bytes32,bytes32)": {
        "details": "Without an onBehalfOf parameter as the compact calls to L2Pool will use msg.sender as onBehalfOf",
        "params": {
          "amount": "The amount to be supplied",
          "asset": "The address of the underlying asset to supply",
          "deadline": "The deadline timestamp that the permit is valid",
          "permitR": "The R parameter of ERC712 permit sig",
          "permitS": "The S parameter of ERC712 permit sig",
          "permitV": "The V parameter of ERC712 permit sig",
          "referralCode": "referralCode Code used to register the integrator originating the operation, for potential rewards.   0 if the action is executed directly by the user, without any middle-man"
        },
        "returns": {
          "_0": "compact representation of supplyWithPermit parameters",
          "_1": "The R parameter of ERC712 permit sig",
          "_2": "The S parameter of ERC712 permit sig"
        }
      },
      "encodeSwapBorrowRateMode(address,uint256)": {
        "params": {
          "asset": "The address of the underlying asset borrowed",
          "interestRateMode": "The current interest rate mode of the position being swapped: 1 for Stable, 2 for Variable"
        },
        "returns": {
          "_0": "compact representation of swap borrow rate mode parameters"
        }
      },
      "encodeWithdrawParams(address,uint256)": {
        "details": "Without a to parameter as the compact calls to L2Pool will use msg.sender as to",
        "params": {
          "amount": "The underlying amount to be withdrawn",
          "asset": "The address of the underlying asset to withdraw"
        },
        "returns": {
          "_0": "compact representation of withdraw parameters"
        }
      }
    },
    "title": "L2Encoder",
    "version": 1
  },
  "userdoc": {
    "kind": "user",
    "methods": {
      "encodeBorrowParams(address,uint256,uint256,uint16)": {
        "notice": "Encodes borrow parameters from standard input to compact representation of 1 bytes32"
      },
      "encodeLiquidationCall(address,address,address,uint256,bool)": {
        "notice": "Encodes liquidation call parameters from standard input to compact representation of 2 bytes32"
      },
      "encodeRebalanceStableBorrowRate(address,address)": {
        "notice": "Encodes rebalance stable borrow rate parameters from standard input to compact representation of 1 bytes32"
      },
      "encodeRepayParams(address,uint256,uint256)": {
        "notice": "Encodes repay parameters from standard input to compact representation of 1 bytes32"
      },
      "encodeRepayWithATokensParams(address,uint256,uint256)": {
        "notice": "Encodes repay with aToken parameters from standard input to compact representation of 1 bytes32"
      },
      "encodeRepayWithPermitParams(address,uint256,uint256,uint256,uint8,bytes32,bytes32)": {
        "notice": "Encodes repayWithPermit parameters from standard input to compact representation of 3 bytes32"
      },
      "encodeSetUserUseReserveAsCollateral(address,bool)": {
        "notice": "Encodes set user use reserve as collateral parameters from standard input to compact representation of 1 bytes32"
      },
      "encodeSupplyParams(address,uint256,uint16)": {
        "notice": "Encodes supply parameters from standard input to compact representation of 1 bytes32"
      },
      "encodeSupplyWithPermitParams(address,uint256,uint16,uint256,uint8,bytes32,bytes32)": {
        "notice": "Encodes supplyWithPermit parameters from standard input to compact representation of 3 bytes32"
      },
      "encodeSwapBorrowRateMode(address,uint256)": {
        "notice": "Encodes swap borrow rate mode parameters from standard input to compact representation of 1 bytes32"
      },
      "encodeWithdrawParams(address,uint256)": {
        "notice": "Encodes withdraw parameters from standard input to compact representation of 1 bytes32"
      }
    },
    "notice": "Helper contract to encode calldata, used to optimize calldata size in L2Pool for transaction cost reduction only indented to help generate calldata for uses/frontends.",
    "version": 1
  },
  "storageLayout": {
    "storage": [],
    "types": null
  }
}